:020000040C00EE
:1000000000C8FF1F010200089102000891020008C9
:10001000910200089102000891020008000000000F
:100020000000000000000000000000009102000835
:1000300091020008000000009102000891020008EF
:100040009102000891020008910200089102000844
:100050009102000891020008910200089102000834
:1000600091020008000000000000000000000000F5
:1000700091020008000000009102000891020008AF
:100080009102000891020008910200089102000804
:1000900091020008910200089102000891020008F4
:1000A000910200089102000800000000000000001A
:1000B0000000000000000000000000000000000040
:1000C0000000000000000000000000000000000030
:1000D0000000000000000000000000000000000020
:1000E00000000000000000009102000891020008DA
:1000F0009102000891020008910200089102000894
:100100009102000891020008910200089102000883
:1001100000000000000000000000000000000000DF
:1001200000000000000000000000000000000000CF
:100130009102000891020008910200089102000853
:1001400000000000000000000000000000000000AF
:100150009102000891020008000000000000000069
:100160009102000891020008910200089102000823
:100170009102000891020008910200089102000813
:100180009102000891020008910200089102000803
:10019000910200089102000891020008A12C0008B9
:1001A00091020008B12C0008CD4C0008BD4C00089D
:1001B00091020008910200089102000891020008D3
:1001C000000000000000000000000000000000002F
:1001D0000000000000000000910200080000000084
:1001E000910200089102000800000000910200083E
:1001F00000000000000000000000000000000000FF
:10020000DFF86CD01B4880471B4C1C4DAC4209DA10
:1002100021686268A368043BA2BFC858D050FAE7BF
:100220000C34F3E7164B174CA34208DA19685A68E6
:100230000020043AA4BF8850FBE70833F4E71248D3
:100240008047124880470000885A000C00C8FF1FF2
:10025000AC020000885A000C00C8FF1F000000001C
:10026000ACCAFF1F380000000000002000000000A2
:1002700000C8FF1F9502000848020008600200083D
:1002800060020008700200089D51000841510008FA
:10029000FEE7000098B500AF084A4FF0005314463F
:1002A0000FCB84E80F00064B064A07CA83E8070015
:1002B00004F0B4FD04F012FE98BD00BFC45F00203E
:1002C000D45F00208400002080B584B000AF2F4BA5
:1002D000DB6803F48033002B3ED02D4BDB6803F04A
:1002E0000103002B02D02B4BFB6002E000F056F81C
:1002F000F860274B1B6803F00403002B20D0244B2D
:100300009B6803F070631B0E0133BB60204B9B683E
:1003100003F4FE431B0A01337B601D4B9B6803F40F
:10032000FE031B0C01333B60BB683A6802FB03F31E
:10033000FA68B2FBF3F37A6802FB03F3FB600DE0AB
:10034000134B9B6803F07F0301333B60FA683B6803
:10035000B2FBF3F3FB6001E00E4BFB600B4BDB6881
:10036000DBB20133FA68B2FBF3F3FB60074B1B69A6
:1003700003F001030133FA68B2FBF3F3FB60064AB2
:10038000FB6813601037BD4680BD00BF00460050BB
:100390001047005000366E01C05F002080B400AFEF
:1003A000024B1846BD465DF8047B7047001BB70042
:1003B00080B485B000AFF8600B467A60FB72FB7AC0
:1003C0009B08DBB21846FB7A9B08DBB21A46FB6837
:1003D000043253F82220FB7A03F00303DB001946B2
:1003E000F8238B40DB4302EA0301FB68021D43F85C
:1003F0002210FB685A6FFB7A5B00194603238B407F
:10040000DB431A40FB685A67FB68384A93420AD1BB
:10041000FB681A6EFB7A012101FA03F3DB431A40F1
:10042000FB681A6642E07B681B78DBB25BB2002B8C
:100430003CDA7B685A68FB7A9A40FB685A60FB7A20
:10044000DB08DBB21846FB7ADB08DBB21A46FB6836
:10045000103253F82220FB7A03F007039B00194661
:1004600007238B40DB4302EA0301FB6800F1100223
:1004700043F82210FB7ADB08DBB21846FB7ADB0874
:10048000DBB21A46FB68103253F822207B681B7AD5
:100490001946FB7A03F007039B0001FA03F342EAD3
:1004A0000301FB6800F1100243F82210FB7A9B085D
:1004B000DBB21846FB7A9B08DBB21A46FB680432B3
:1004C00053F822207B681B781946FB7A03F003035C
:1004D000DB0001FA03F342EA0301FB68021D43F863
:1004E00022101437BD465DF8047B7047008E024829
:1004F00080B400AF034B1B681846BD465DF8047B13
:10050000704700BFC05F002080B400AF034BD3F83A
:10051000C4301846BD465DF8047B7047004000506B
:1005200080B584B000AF7860FFF7CEFE0B4B1B6840
:100530000B4AA2FB03239A0C7B6802FB03F37B604C
:100540000023FB6003E000BFFB680133FB60FA6837
:100550007B689A42F7D31037BD4680BDC05F00204C
:1005600083DE1B4380B400AF034B5B681846BD4677
:100570005DF8047B704700BF7440005080B483B0C6
:1005800000AF7860034A7B68D3600C37BD465DF8E6
:10059000047B704774400050B0B584B002AF7860FF
:1005A000002000F0C5F800F021FA7B68DB79002B11
:1005B0000AD000F059FA00BF00F044FA034683F075
:1005C0000103DBB2002BF7D17B685B7A184600F0A1
:1005D00015F900BFFFF798FF0346002BFAD17B689F
:1005E0001B7A184600F0DCF97B681B7C184600F08B
:1005F00023F97B685B7C184600F046F97B689B7C9E
:10060000184600F02DF97B68DB7C184600F050F9A5
:100610007B689B79002B0AD000F05EFA00BF00F0E7
:1006200083FA034683F00103DBB2002BF7D17B682A
:10063000DB78002B09D17B689B7983F00103DBB267
:10064000002B17D000F094FA14E000F081FA7B68D8
:1006500099887B68DA787B685B781D467B681B78B5
:100660001C467B689B780093084611462A46234621
:1006700000F08EFA7B68DB68B3F5803F03D14FF45E
:10068000803000F055F8FFF71FFE0837BD46B0BDBB
:1006900080B485B000AF78607B681B0FFB607B681F
:1006A00023F07043BB60FA6813465B0013449B0061
:1006B0001A46044B1344BA681A601437BD465DF8F5
:1006C000047B70471444005080B485B000AF78605C
:1006D0007B681B0FFB607B6823F07043BB60FA688C
:1006E00013465B0013449B001A46084B13441A68D8
:1006F000BB681340002B14BF01230023DBB2184654
:100700001437BD465DF8047B704700BF0C440050B1
:1007100080B500AFFFF7ECFE0246044B5B6903F0C7
:10072000010322FA03F3184680BD00BF00460050C3
:1007300080B483B000AF78600649064BDB6823F4D1
:1007400080327B681343CB600C37BD465DF8047B79
:10075000704700BF0046005080B483B000AF78609F
:100760000649064B5B6A23F440327B6813434B62B5
:100770000C37BD465DF8047B704700BF0046005053
:1007800080B483B000AF0346FB80FB88002B08D108
:100790000A4A0A4BDB6823F4807323F00103D36019
:1007A00007E0064A054BDB6843F4807343F001031E
:1007B000D3600C37BD465DF8047B7047104700508E
:1007C00080B483B000AF0346FB7100BF094BD3F880
:1007D000C43003F00803002BF8D10749064BDB684F
:1007E00023F04002FB791343CB600C37BD465DF824
:1007F000047B7047004000500043005080B483B039
:1008000000AF0346FB7100BF094BD3F8C43003F0BF
:100810000803002BF8D10749064BDB6823F0800260
:10082000FB791343CB600C37BD465DF8047B704702
:10083000004000500043005080B483B000AF7860A7
:100840000649064BDB6823F0FF027B68013B13433C
:10085000CB600C37BD465DF8047B70470046005006
:1008600080B483B000AF78600649064B1B6A23F062
:1008700001027B68013B13430B620C37BD465DF8F8
:10088000047B70470046005080B483B000AF7860AE
:100890000649064B1B6923F001027B68013B1343A9
:1008A0000B610C37BD465DF8047B70470046005075
:1008B00080B483B000AF78600649064B5B6923F0D3
:1008C00001027B68013B13434B610C37BD465DF869
:1008D000047B70470046005080B483B000AF78605E
:1008E0000649064B5B6A23F0FF027B68013B13431A
:1008F0004B620C37BD465DF8047B704700460050E4
:1009000080B483B000AF0346FB71044AFB795360A7
:100910000C37BD465DF8047B704700BF00460050B1
:1009200080B485B000AF78607B681B0FFB607B688C
:1009300023F07043BB60FA6813465B0013449B00CE
:100940001A46044B1344BA681A601437BD465DF862
:10095000047B70474846005080B485B000AF786093
:100960007B681B0FFB607B6823F07043BB60FA68F9
:1009700013465B0013449B001A46084B13441A6845
:10098000BB681340002B14BF01230023DBB21846C1
:100990001437BD465DF8047B704700BF40460050E9
:1009A00080B582B000AF0346FB710F4A0E4B5B6807
:1009B00043F480135360FB79012B0ED10A4A0A4B92
:1009C0005B6823F4801353606420FFF7A9FD064A97
:1009D000054B5B6843F4002353606420FFF7A0FDE0
:1009E0000837BD4680BD00BF1047005080B400AF3F
:1009F000124B1B6803F00103002B09D10F4B01229E
:100A00005A6000BF0D4B1B6803F00103002BF9D0A7
:100A10000B4B1B6803F40073002B0AD0084B4FF4F8
:100A200000729A6000BF064B1B6803F40073002B32
:100A3000F9D1BD465DF8047B704700BF004200500D
:100A40000044005080B400AF064B1B6803F008035D
:100A5000002B0CBF01230023DBB21846BD465DF816
:100A6000047B70470043005080B500AF4FF4000096
:100A7000FFF784FD174A174BDB6923F03003D3617E
:100A800000BFFFF76FFD034603F40003002BF8D00F
:100A90004FF40030FFF772FD0E4B08225A6000BF82
:100AA000FFF760FD034603F40033002BF8D04FF44A
:100AB0000020FFF763FD074A064BDB6843F008039D
:100AC000D36000BFFFF74EFD034603F40023002B65
:100AD000F8D080BD00430050B0B500AF0F4A0F4BB7
:100AE0005B6823F4803353600D4D0D4B5B6823F43A
:100AF000702424F03004FFF751FC0246094BA3FB9D
:100B000002231B0D013B1B0423436B60034A034B71
:100B10005B6823F400335360B0BD00BF1047005042
:100B2000004700506BCA5F6B80B400AF074B1B6877
:100B300003F46073B3F5607F0CBF01230023DBB2C5
:100B40001846BD465DF8047B704700BF1047005053
:100B500080B400AF054A054B5B6823F4803323F073
:100B600002035360BD465DF8047B70471047005098
:100B700080B400AF054A054B5B6843F4803343F013
:100B800002035360BD465DF8047B70471047005078
:100B900080B586B000AFBA607B600346FB810B4630
:100BA0007B73FB891846FFF7EBFD7B7B012B40F045
:100BB0008B80FB89002B09D1FFF7F0FB0246544BD9
:100BC000A3FB02239B0C9B057B6102E04FF0C063FB
:100BD0007B617B697A6802FB03F2BB68B2FBF3F3CB
:100BE0007B617B694B4AA2FB03231B099B0D3B6185
:100BF000494A494B5B6843F00103536000BF464BD1
:100C00001B6803F00103002BF9D0434A424B5B6899
:100C100043F01003536040493F4B9A683F4B1340E9
:100C20007A68013A12021A433B69013B1B041A43DA
:100C3000BB68013B1B0613438B60374A364B5B682E
:100C400043F040035360344A334B5B6823F0100396
:100C50005360314A304B5B6843F48023536000BFDC
:100C60002D4B1B6803F00403002BF9D02A4A2A4BB2
:100C70005B6823F00103536000BF274B1B6803F040
:100C80000103002BF9D17B69254AA2FB03235B09F1
:100C90009B0D3B613A6A3B699A4202D2386900F087
:100CA00045F87B695B081F4AA2FB03235B099B0D88
:100CB0003B613A6A3B699A4202D2386900F036F8E1
:100CC000386A00F033F81CE01349134B9B6823F09B
:100CD0007F023B6A013B13438B6000BF0E4B1B68D6
:100CE00003F01003002BF9D00B4A0B4B5B6843F069
:100CF0000103536000BF084B1B6803F00103002B86
:100D0000F9D0094B0522DA601837BD4680BD00BF17
:100D100083DE1B43ABAAAAAA10470050FF8080F0D5
:100D200089888888B7600BB66041005080B582B072
:100D300000AF78600B490B4B9B6823F4FE027B6885
:100D4000013B1B0413438B6000BF064B1B6803F081
:100D50002003002BF9D03220FFF7E2FB0837BD4615
:100D600080BD00BF1047005080B483B000AF7860F2
:100D70007B684FF48072DA600C37BD465DF8047B07
:100D8000704700BF80B582B000AF78607B68084ACA
:100D9000934203D10420FFF77BFC06E07B68054A01
:100DA000934202D10820FFF773FC0837BD4680BD8F
:100DB00000C000400000014080B582B000AF786004
:100DC0007B68084A934203D10420FFF7A9FD06E09F
:100DD0007B68054A934202D10820FFF7A1FD08373E
:100DE000BD4680BD00C000400000014080B582B01B
:100DF00000AF78601020FFF783FD7868FFF7DCFF15
:100E00007868FFF7BFFF0837BD4680BD80B584B066
:100E100000AF78600B46FB707868FFF7E7FF7868F3
:100E2000FFF7A2FF7B681B68FB60FB6823F440436D
:100E3000FB60FB789B03FA681343FB607B68FA68EE
:100E40001A601037BD4680BD80B485B000AF7860B1
:100E500039607B681B68FB603B681B0CDB43FA68EE
:100E60001340FB603B689BB2FA681343FB607B68EE
:100E7000FA681A601437BD465DF8047B704700BFFE
:100E800080B483B000AF786039603B681A687B68D3
:100E90005A613B685B79C3F34013DBB21A057B6888
:100EA0005A603B681B79C3F30303DBB21A467B68C5
:100EB0005A623B685B79C3F30303DBB21A467B6873
:100EC0001A623B685B79C3F30013DBB21A467B6896
:100ED0009A613B681B79C3F30313DBB21A467B6844
:100EE000DA620C37BD465DF8047B704780B485B08C
:100EF00000AF78600B46FB701346BB707B685B6885
:100F0000BB60BB6823F00303BB60FB78BA68134384
:100F1000BB607B68BA685A607B685B69FB60BB78C2
:100F2000012B04D1FB6843F48063FB6003E0FB68A2
:100F300023F48063FB607B68FA685A611437BD460E
:100F40005DF8047B704700BF80B485B000AF786067
:100F50000B46FB701346BB707B685B68FB60FB68ED
:100F600023F00C03FB60FB789B00FA681343FB60E3
:100F70007B68FA685A607B685B69BB60BB6823F476
:100F80004073BB60BB781B02BA681343BB607B68CD
:100F9000BA685A611437BD465DF8047B704700BFDC
:100FA00080B485B000AF78600B46FB707B685B68EF
:100FB000FB60FB6823F44053FB60FB781B03FA687B
:100FC0001343FB607B68FA685A601437BD465DF8CE
:100FD000047B704780B485B000AF78600846114646
:100FE0001A460346FB700B46BB7013467B707B684A
:100FF0005B69FB607B685B68BB60BB6823F4402374
:10100000BB60FB789B04BA681343BB607B68BA681B
:101010005A60BB78012B04D1FB6843F08073FB60FE
:1010200003E0FB6823F08073FB607B78002B04D027
:10103000FB6843F40003FB6003E0FB6823F4000358
:10104000FB607B68FA685A611437BD465DF8047B23
:10105000704700BF80B485B000AF78600B46FB706E
:101060007B685B68FB60FB6823F44043FB60FB78B4
:101070009B03FA681343FB607B68FA685A60143775
:10108000BD465DF8047B704780B485B000AF7860E2
:101090000B46FB707B685B68FB60FB6823F4407366
:1010A000FB60FB781B02FA681343FB607B68FA68FD
:1010B0005A601437BD465DF8047B704780B485B034
:1010C00000AF78600B46FB707B685B68FB60FB6879
:1010D00023F44063FB60FB789B02FA681343FB60D8
:1010E0007B68FA685A601437BD465DF8047B704728
:1010F00080B485B000AF78607B685B68FB60FB689C
:1011000023F48033FB60FB6843F48033FB607B682F
:10111000FA685A601437BD465DF8047B704700BF1B
:1011200080B485B000AF78600B46FB701346BB708F
:101130007B685B68BB60BB6823F40033BB60BB6843
:1011400043F40033BB607B68BA685A607B685B69B4
:10115000FB60BB78002B04D0FB6843F40013FB60FA
:1011600003E0FB6823F40013FB60FB78012B04D140
:10117000FB6843F48003FB6003E0FB6823F4800317
:10118000FB607B68FA685A611437BD465DF8047BE2
:10119000704700BF80B487B000AFF860B9607A6074
:1011A000FB681B687B617B6923F440237B61BB6820
:1011B0005B789B047A6913437B617B6923F440135A
:1011C0007B617B685B781B057A6913437B617B6974
:1011D00023F400037B61BB689B78DB057A691343CA
:1011E0007B617B6923F080737B617B689B781B0646
:1011F0007A6913437B617B6923F0C0537B61BB68D1
:10120000DB78DB067A6913437B617B6923F0C0439B
:101210007B617B68DB785B077A6913437B617B6961
:1012200023F0F0037B61BB681B781B017A691343D1
:101230007B617B6923F470637B617B681B781B0295
:101240007A6913437B61FB687A691A601C37BD4673
:101250005DF8047B704700BF80B489B000AFF860D0
:101260000B467A60FB72FB7A013BFB77FB681B68DD
:10127000BB61FB7F5B00DBB21033FB75FB7D0322A0
:1012800002FA03F3DB43BA691340BB617B685B7806
:101290001A46FB7D02FA03F3BA691343BB61FB7F75
:1012A0001633FB75FB7D012202FA03F3DB43BA69B7
:1012B0001340BB617B689B781A46FB7D02FA03F3FF
:1012C000BA691343BB61FB7F5B00DBB21933FB756B
:1012D000FB7D032202FA03F3DB43BA691340BB61CF
:1012E0007B68DB781A46FB7D02FA03F3BA69134385
:1012F000BB61FB7F9B00FB75FB7D0F2202FA03F3B2
:10130000DB43BA691340BB617B681B781A46FB7DDF
:1013100002FA03F3BA691343BB61FB68BA691A6046
:101320002437BD465DF8047B704700BF80B487B0AA
:1013300000AF78600B46FB701346BB70FB780B2B3D
:1013400036D801A252F823F0791300087913000867
:101350008313000883130008B1130008B1130008B9
:10136000B1130008B11300088D1300089913000889
:10137000A5130008A513000803233B6100237B612C
:101380001BE00C233B6102237B6116E04FF44073AA
:101390003B6108237B6110E04FF440633B610A230B
:1013A0007B610AE04FF440533B610C237B6104E016
:1013B00000233B6100237B6100BF3B69002B13D0FE
:1013C0007B68D3F8A830FB603B69DB43FA681340C5
:1013D000FB60BA787B6902FA03F3FA681343FB6097
:1013E0007B68FA68C3F8A8201C37BD465DF8047B0B
:1013F000704700BF80B483B000AF78607B684FF463
:101400008072DA600C37BD465DF8047B704700BF20
:1014100080B483B000AF78607B6801221A610C371A
:10142000BD465DF8047B704780B582B000AF786040
:101430007B68044A934202D18020FFF729F90837DC
:10144000BD4680BD0000024080B582B000AF78602C
:101450007B68044A934202D18020FFF761FA083783
:10146000BD4680BD0000024080B582B000AF78600C
:101470001020FFF745FA7868FFF7E6FF7868FFF776
:10148000D3FF0837BD4680BD80B584B000AF78601B
:101490000B46FB707868FFF7E7FF7868FFF7AAFF55
:1014A0007B681B68FB60FB6823F44043FB60FB78B0
:1014B0009B03FA681343FB607B68FA681A60103775
:1014C000BD4680BD80B582B000AF78603960786875
:1014D000FFF79EFF3B681A687B685A613B685B7B3D
:1014E000C3F30013DBB21A057B685A603B681B7BB1
:1014F000C3F30303DBB21A467B685A623B681B7B6B
:10150000C3F30313DBB21A467B68DA623B685B7B8A
:10151000C3F30303DBB21A467B681A623B685A685E
:101520007B689A613B689B6883F014027B689A64CD
:101530000837BD4680BD00BF80B485B000AF78607D
:1015400039607B681B68FB603B681B0CDB43FA68F7
:101550001340FB603B689BB2FA681343FB607B68F7
:10156000FA681A601437BD465DF8047B704700BF07
:1015700080B485B000AF78600B46FB701346BB703B
:101580007B685B68BB60BB6823F00303BB60FB78D0
:10159000BA681343BB607B68BA685A607B685B6952
:1015A000FB60BB78012B04D1FB6843F48063FB60D4
:1015B00003E0FB6823F48063FB607B68FA685A6190
:1015C0001437BD465DF8047B704700BF80B485B01A
:1015D00000AF78600B46FB701346BB707B685B689E
:1015E000FB60FB6823F00C03FB60FB789B00FA6850
:1015F0001343FB607B68FA685A607B685B69BB6079
:10160000BB6823F44073BB60BB781B02BA6813430A
:10161000BB607B68BA685A611437BD465DF8047BCD
:10162000704700BF80B485B000AF78600B46FB7098
:101630007B685B68FB60FB6823F44053FB60FB78CE
:101640001B03FA681343FB607B68FA685A6014371F
:10165000BD465DF8047B704780B485B000AF78600C
:101660000B46FB707B685B69FB60FB6823F08003C3
:10167000FB60FB78DB01FA681343FB607B68FA6868
:101680005A611437BD465DF8047B704780B485B05D
:1016900000AF7860084611461A460346FB700B46B9
:1016A000BB7013467B707B685B68BB60BB6823F4D0
:1016B0004023BB60FB789B04BA681343BB607B6824
:1016C000BA685A607B685B69FB60BB78012B04D108
:1016D000FB6843F08073FB6003E0FB6823F08073DA
:1016E000FB603B7E002B04D0FB6843F40003FB60EF
:1016F00003E0FB6823F40003FB60FB6823F0C053A6
:10170000FB607B78DB06FA681343FB607B68FA6852
:101710005A611437BD465DF8047B704780B485B0CC
:1017200000AF78600B46FB707B685B68FB60FB6812
:1017300023F44043FB60FB789B03FA681343FB6090
:101740007B68FA685A601437BD465DF8047B7047C1
:1017500080B485B000AF78600B46FB707B685B6837
:10176000FB60FB6823F44073FB60FB781B02FA68A4
:101770001343FB607B68FA685A601437BD465DF816
:10178000047B704780B485B000AF78600B46FB7077
:101790007B685B68FB60FB6823F44063FB60FB785D
:1017A0009B02FA681343FB607B68FA685A6014373F
:1017B000BD465DF8047B704780B485B000AF7860AB
:1017C0007B685B68FB60FB6823F48033FB60FB682D
:1017D00043F48033FB607B68FA685A601437BD4677
:1017E0005DF8047B704700BF80B485B000AF7860BF
:1017F0000B46FB701346BB707B685B68BB60BB68C5
:1018000023F40033BB60BB6843F40033BB607B68E8
:10181000BA685A607B685B69FB60BB78002B04D0B8
:10182000FB6843F40013FB6003E0FB6823F4001340
:10183000FB60FB78012B04D1FB6843F48003FB6061
:1018400003E0FB6823F48003FB607B68FA685A615D
:101850001437BD465DF8047B704700BF80B487B085
:1018600000AFF860B9607A60FB681B687B617B69D8
:1018700023F440237B61BB685B789B047A69134344
:101880007B617B6923F440137B617B685B781B057C
:101890007A6913437B617B6923F400037B61BB6836
:1018A0009B78DB057A6913437B617B6923F0807346
:1018B0007B617B689B781B067A6913437B617B693C
:1018C00023F0C0537B61BB68DB78DB067A69134386
:1018D0007B617B6923F0C0437B617B68DB785B07BE
:1018E0007A6913437B617B6923F0F0037B61BB68FA
:1018F0001B781B017A6913437B617B6923F4706356
:101900007B617B681B781B027A6913437B61FB68F0
:101910007A691A601C37BD465DF8047B704700BFCA
:1019200080B489B000AFF8600B467A60FB72FB7A36
:10193000013BFB77FB681B68BB61FB7F5B00DBB295
:101940001033FB75FB7D032202FA03F3DB43BA6914
:101950001340BB617B685B781A46FB7D02FA03F398
:10196000BA691343BB61FB7F1633FB75FB7D012214
:1019700002FA03F3DB43BA691340BB617B689B78CF
:101980001A46FB7D02FA03F3BA691343BB61FB7F7E
:101990005B00DBB21933FB75FB7D032202FA03F314
:1019A000DB43BA691340BB617B68DB781A46FB7D79
:1019B00002FA03F3BA691343BB61FB7F9B00FB751B
:1019C000FB7D0F2202FA03F3DB43BA691340BB61CC
:1019D0007B681B781A46FB7D02FA03F3BA6913434E
:1019E000BB61FB68BA691A602437BD465DF8047BA9
:1019F000704700BF80B483B000AF78600B467B8037
:101A00007A887B685A630C37BD465DF8047B704763
:101A100080B483B000AF78600B46FB7013463B8008
:101A2000FB78002B03D13A887B68DA6302E03A88BE
:101A30007B685A640C37BD465DF8047B704700BF75
:101A400080B487B000AF78600B46FB701346BB7064
:101A5000FB780B2B3BD801A252F823F08D1A00081B
:101A60008D1A0008971A0008971A0008A11A000892
:101A7000A11A0008CF1A0008CF1A0008AB1A0008F4
:101A8000B71A0008C31A0008C31A000803237B61B1
:101A900000233B6120E00C237B6102233B611BE0C0
:101AA00030237B6104233B6116E04FF440737B617C
:101AB00008233B6110E04FF440637B610A233B61E4
:101AC0000AE04FF440537B610C233B6104E00023A8
:101AD0007B6100233B6100BF7B69002B13D07B68D7
:101AE000D3F8A830FB607B69DB43FA681340FB60E6
:101AF000BA783B6902FA03F3FA681343FB607B6828
:101B0000FA68C3F8A8201C37BD465DF8047B70470F
:101B100080B483B000AF786039603B685A687B68F6
:101B20001A653B689A687B685A653B681A687B68E7
:101B3000DA640C37BD465DF8047B704780B483B02F
:101B400000AF78600B46FB701346BB70FB789B08B8
:101B5000DBB21846FB789B08DBB21A467B6804327E
:101B600053F82220FB7803F00303DB001946F82327
:101B70008B40DB4302EA03017B68021D43F822101D
:101B8000FB789B08DBB21846FB789B08DBB21A4651
:101B90007B68043253F82220BB78F97801F0030106
:101BA000C9008B4042EA03017B68021D43F8221002
:101BB0000C37BD465DF8047B704700BF80B483B02E
:101BC00000AF78600B46FB701346BB707B685A6FA2
:101BD000FB785B00194603238B40DB431A407B688C
:101BE0005A677B685A6FBB78F97849008B401A4373
:101BF0007B685A670C37BD465DF8047B704700BFB1
:101C000080B483B000AF78607B689B6BDBB223F05D
:101C10007F03DBB218460C37BD465DF8047B704786
:101C200080B483B000AF786039607B68DA6C3B6861
:101C30001A437B68DA640C37BD465DF8047B704755
:101C400080B584B000AFF860B9601346FB71F868E6
:101C500000F0ECFAFB68114A5A63BB68DB88F8684D
:101C6000194600F01DF8FB79002B08D0BB681A68F4
:101C7000BB681B79F86811461A4600F03BF8FB6810
:101C80004FF4A0629A63FB684FF0FF32DA64FB689E
:101C900000221A641037BD4680BD00BF03033F0712
:101CA00080B483B000AF78600B467B807B8803F400
:101CB000F843B3F5F04F0ED17B68DB6B1B0C1B04B4
:101CC0007A88D2B21A437B885B0003F47E431A43BE
:101CD0007B68DA6308E07B68DB6B1B0C1B047A888B
:101CE00012021A437B68DA630C37BD465DF8047B49
:101CF000704700BF80B586B000AFF860B96013468A
:101D0000FB71BB68204A934219D8FB68DB6B23F454
:101D10000032FB68DA63FB79002B08D0BB68F868F7
:101D200019460A2200F02EFB0346FB7527E0F868EF
:101D3000B9680A2200F0B4FA0346FB751FE0BB68DD
:101D4000124A934219D8FB68DB6B43F40032FB68FC
:101D5000DA63FB79002B08D0BB68F86819461922B2
:101D600000F010FB0346FB7509E0F868B96819221A
:101D700000F096FA0346FB7501E00123FB75FB7D3D
:101D800018461837BD4680BDA0860100801A06009F
:101D900080B582B000AF78607B68D3F8083103F07B
:101DA000E063002B11D100BF7868FFF729FF0346DD
:101DB000802BF9D078684FF40051FFF731FF7B6832
:101DC0004FF4C062C3F8802004E07B684FF4C06227
:101DD000C3F880210837BD4680BD00BF80B582B002
:101DE00000AF78600B46FB707B68D3F8083103F0D6
:101DF000E063002B10D100BF7868FFF701FF0346B6
:101E0000802BF9D078684FF40051FFF709FFFA787A
:101E10007B68C3F8802003E0FA787B68C3F88021F0
:101E20000837BD4680BD00BF80B582B000AF786086
:101E30007B68D3F8083103F0E063002B11D100BFB9
:101E40007868FFF7DDFE0346802BF9D078684FF401
:101E50000051FFF7E5FE7B684FF40072C3F8802065
:101E600004E07B684FF40072C3F880210837BD4658
:101E700080BD00BF80B582B000AF78607B68D3F8CA
:101E8000083103F0E063002B11D100BF7868FFF741
:101E9000B7FE0346802BF9D078684FF40051FFF766
:101EA000BFFE7B684FF44072C3F8802004E07B687B
:101EB0004FF44072C3F880210837BD4680BD00BF93
:101EC00080B485B000AF78607B68D3F80C3103F044
:101ED000E063002B03D17B685B6DFB7303E07B68E1
:101EE000D3F81C31FB73FB7B18461437BD465DF8F5
:101EF000047B704780B483B000AF786039607B6842
:101F00001A6C3B6803F4FE33DB431A407B681A64A7
:101F10007B68DA6B3968054B0B40DB431A407B6802
:101F2000DA630C37BD465DF8047B70470000FC4166
:101F300080B483B000AF78607B689B6BDBB223F02A
:101F40007F03DBB218460C37BD465DF8047B704753
:101F500080B483B000AF786039607B68DA6C3B682E
:101F60001A437B68DA640C37BD465DF8047B704722
:101F700080B584B000AFF860B9601346FB71F868B3
:101F800000F054F9BB685B79002B15D1FB79002B6D
:101F900012D0BB681B79002B07D0BB681B68F868A0
:101FA0001946022200F0EEF906E0BB681B68F868EB
:101FB0001946022200F074F9FB680F4A5A63FB6865
:101FC0004FF4A2629A63BB685B79002B07D1BB68B0
:101FD0009B7943F00B03DBB21A46FB68DA63FB68BC
:101FE0004FF0FF32DA64BB681B891A46FB681A643B
:101FF0001037BD4680BD00BF02013F0780B582B0EB
:1020000000AF78600B467B8013467B707B681B6C4F
:1020100023F0C0027B789B01DBB21A437B681A6411
:102020007B68D3F8083103F0E063002B12D100BFC6
:102030007868FFF77DFF0346802BF9D078684FF46E
:102040000051FFF785FF7A7879887B68203243F862
:10205000221005E07A7879887B68603243F8221094
:102060000837BD4680BD00BF80B485B000AF786042
:102070007B68D3F80C3103F0E063002B03D17B685D
:102080005B6DFB8103E07B68D3F81C31FB81FB892E
:1020900018461437BD465DF8047B704780B483B0A2
:1020A00000AF78607B689B6BDBB223F07F03DBB211
:1020B00018460C37BD465DF8047B704780B483B08A
:1020C00000AF786039607B683A68DA640C37BD46E7
:1020D0005DF8047B704700BF80B586B000AFF86044
:1020E000B9601346FB7110237B61F86800F09EF81D
:1020F000BB681B7A002B02D0BB681B7A7B61FB7923
:10210000002B14D0BB681B79002B09D0BB681B685F
:102110001A467B69F86811461A4600F033F906E062
:10212000BB681B68F86819467A6900F0B9F8BB68A3
:10213000DB79013B5A007B695B0801331B021343C7
:1021400043F4403343F00103FA68D363BB685B791F
:10215000013B1B0643F48172FB685A63BB689B79A1
:10216000002B09D0FB685A6BBB689B79013B1B04B1
:102170001A43FB685A6308E0FB685A6BBB685B79DB
:10218000013B1B041A43FB685A63FB684FF4A062CF
:102190009A63FB684FF0FF32DA64BB685B891A46CA
:1021A000FB681A641837BD4680BD00BF80B582B099
:1021B00000AF78600B467B807B68D3F8083103F072
:1021C000E063002B10D100BF7868FFF767FF03467C
:1021D000802BF9D078684FF40051FFF76FFF7A88B1
:1021E0007B68C3F8802003E07A887B68C3F880218D
:1021F0000837BD4680BD00BF80B485B000AF7860B1
:102200007B68D3F80C3103F0E063002B03D17B68CB
:102210005B6DFB8103E07B68D3F81C31FB81FB899C
:1022200018461437BD465DF8047B704780B582B010
:1022300000AF78607B68144A934203D07B68134AEE
:10224000934203D1124800F0DFF90AE07B68114A9B
:10225000934203D07B68104A934202D10F4800F0AA
:10226000D3F97B680322DA6000BF7B68DB6803F088
:102270000103002BF9D07B681B6C23F00F027B68F5
:102280001A640837BD4680BD0000034000020340C9
:10229000080003400000024800020248080002480B
:1022A00080B58EB000AFF860B9607A60BB68632B10
:1022B0005AD97B68002B57D0FEF72AFA02462F4BDB
:1022C000A3FB02235B093B62BB682C4AA2FB0323EE
:1022D0005B09BB604FF48063FB620123BB6240F289
:1022E000FF337B624FF480633B6322E03B6A3A6BCF
:1022F00002FB03F2BB68796801FB03F3B2FBF3F363
:10230000FB61FB699B0ABB61FB69C3F309037B614A
:10231000BB69B3F5806F09D87A697B6A9A4205D2A6
:102320007B697B62BB69BB623B6BFB623B6B013BC6
:102330003B633B6B002BD9D1FB6A013B43F400426A
:10234000FB681A61FB685A690D4B13407A68013AC1
:1023500092021A43BB6A013B1B041A43FB685A6191
:10236000002387F8373002E0012387F8373097F8E9
:10237000373018463837BD4680BD00BF1F85EB514A
:10238000EF8000FC80B58CB000AFF860B9607A6077
:10239000FEF7BEF903463B62BB687A6802FB03F3B3
:1023A000FB610123FB623A6AFB699A425FDD3A6A8C
:1023B000FB6992FBF3F3BB6210E0FB6A0133FB6243
:1023C000BB687A6802FB03F31A46FB6A03FB02F35D
:1023D000FB613A6AFB6992FBF3F3BB62BB6A40F2B2
:1023E000FE329342E9D83A6A7B68B96A01FB03F38B
:1023F000F96A01FB03F3B2FBF3F3BB613A6ABB6A10
:102400000133796801FB03F3F96A01FB03F3B2FBC3
:10241000F3F37B61BA687B69D31A83EAE372A2EBB8
:10242000E372B968BB69CB1A002BB8BF5B429A4212
:1024300002DABB6A0133BB62BB6AC3F58063BB626D
:10244000BB6A43F48042FB681A61FB685A690C4B13
:1024500013407A68013A92021A43FB6A013B1B045B
:102460001A43FB685A61002387F8273002E00123F2
:1024700087F8273097F8273018463037BD4680BD9B
:10248000EF8000FC80B485B000AFF860B9603B60BD
:102490001346FB71FB68D3F8083123F0E062FB6858
:1024A000C3F80821FB68D3F80821094B13403A68A8
:1024B0001102BA681143FA7912060A431A43FB68FB
:1024C000C3F808211437BD465DF8047B704700BF90
:1024D000C0C0FFF880B485B000AFF860B9603B6061
:1024E0001346FB71FB68D3F80C3123F0E062FB6804
:1024F000C3F80C21FB68D3F80C210A4B13403A684F
:102500001102BA681143FA7912060A43134343F0E1
:102510008052FB68C3F80C211437BD465DF8047B7C
:10252000704700BFC0C0FFEF80B485B000AFF86057
:102530000B467A60FB72FB68D3F80C3123F47C52B3
:102540007B681B021A43FB68C3F80C211437BD4695
:102550005DF8047B704700BF80B485B000AFF860C1
:102560000B467A60FB72FB689A69FB7A072101FAD5
:1025700003F3DB431A40FB7A796801FA03F31A4349
:10258000FB689A611437BD465DF8047B704700BF55
:1025900080B485B000AFF8600B467A60FB72FB68D0
:1025A000D3F80821FB7A072101FA03F3DB431A4031
:1025B000FB7A796801FA03F31A43FB68C3F8082130
:1025C0001437BD465DF8047B704700BF80B485B00A
:1025D00000AFF8600B467A60FB72FB68D3F80C2101
:1025E000FB7A072101FA03F3DB431A40FB7A79688F
:1025F00001FA03F31A43FB68C3F80C211437BD46F4
:102600005DF8047B704700BF80B582B000AF786092
:102610007B681B4A934218D14FF40060FEF780F9A3
:1026200000BF4FF40060FEF797F90346002BF8D186
:102630004FF40060FEF72CF800BF4FF40060FEF787
:1026400043F80346002BF8D117E07B680D4A93420C
:1026500013D10D48FEF764F900BF0B48FEF77CF973
:102660000346002BF9D10848FEF712F800BF0648D0
:10267000FEF72AF80346002BF9D10837BD4680BD86
:1026800008000340080002488000001080B400AF3A
:10269000BD465DF8047B704780B483B000AF7860BE
:1026A00039607B681A6C3B68DB431A407B681A64AC
:1026B0000C37BD465DF8047B704700BF80B483B023
:1026C00000AF78607B689B6BDBB223F07F03DBB2EB
:1026D00018460C37BD465DF8047B704780B483B064
:1026E00000AF786039607B68D3F808213B68DB4332
:1026F0001A407B68C3F808210C37BD465DF8047B9F
:10270000704700BF80B483B000AF78607B68D3F8B7
:10271000143103F48053002B14BF01230023DBB2D8
:1027200018460C37BD465DF8047B704780B483B013
:1027300000AF78607B68D3F8143103F40063002B9A
:1027400014BF01230023DBB218460C37BD465DF8E9
:10275000047B704780B483B000AF786039607B68D9
:10276000D3F80C213B68DB431A407B68C3F80C218B
:102770000C37BD465DF8047B704700BF80B483B062
:1027800000AF78607B68D3F8143103F00803002BA6
:1027900014BF01230023DBB218460C37BD465DF899
:1027A000047B704780B584B000AF78600023FB7372
:1027B0007B685B685B6898470346FB73FB7B184646
:1027C0001037BD4680BD00BF80B584B000AF7860D3
:1027D0007B689B68FB60FB68DA68FB689B689A42D1
:1027E00040D27B685B6893F82B30002B27D01AE02F
:1027F000FB68DA68FB689B689A4212D27B681968AA
:10280000FB681A68FB68DB6813441B789BB20846B8
:102810001946FFF7CBFCFB68DB685A1CFB68DA60E3
:1028200001E000BF53E07B681B681846FFF76AFFB2
:10283000034683F00103DBB2002BD9D147E07B686C
:102840001968FB681A68FB68DB6813441B789BB245
:1028500008461946FFF7AAFCFB68DB685A1CFB68B0
:10286000DA6034E07B681B681846FFF75FFF0346B9
:10287000002B2CD07B685B6893F82B30002B07D0A3
:102880007B681B6818464FF08041FFF727FF06E082
:102890007B681B6818464FF40051FFF7FDFE00BF30
:1028A0007B681B681846FFF709FF0346802BF7D0AB
:1028B000FB6800221A76FB6800221A607B685B685E
:1028C0009B68002B03D07B685B689B689847103738
:1028D000BD4680BD90B585B000AF78607B689B68D1
:1028E000FB607B685B6893F82C30002B4ED032E0A5
:1028F000FB685A69FB681B699A4211D2FB685A68E7
:10290000FB685B69D4187B681B681846FFF774FC8A
:102910000346DBB22370FB685B695A1CFB685A6193
:10292000FB685A69FB681B699A4214D1FB68002254
:102930005A767B681B6818464FF0C041FFF70AFFC4
:102940007B685B68DB68002B04D07B685B68DB68B6
:1029500098470BE00AE07B681B681846FFF70EFFFC
:10296000034683F00103DBB2002BC1D1FB685A6937
:10297000FB681B699A423AD2FB681A69FB685B697B
:10298000D31A7868194600F035F830E0FB685A69C8
:10299000FB681B699A4211D2FB685A68FB685B6945
:1029A000D4187B681B681846FFF726FC0346DBB289
:1029B0002370FB685B695A1CFB685A61FB685A69A3
:1029C000FB681B699A4212D1FB6800225A767B6829
:1029D0001B6818464FF44041FFF75EFE7B685B685A
:1029E000DB68002B03D07B685B68DB689847143793
:1029F000BD4690BD80B584B000AF786039600023DB
:102A0000FB607B685B6893F82C301A460123934087
:102A1000BB603A68BB689A4203D23B68013BFB60EB
:102A200002E0BB68013BFB607B681A687B685B68FF
:102A300093F82C3010461946FA68FFF775FD1037E9
:102A4000BD4680BD80B400AF044BDB6803F4E06397
:102A50001B0A1846BD465DF8047B704700ED00E098
:102A600080B483B000AF0346FB7197F90730002BA9
:102A70000BDB084997F907305B09FA7902F01F026E
:102A8000012000FA02F241F823200C37BD465DF820
:102A9000047B704700E100E080B483B000AF0346E0
:102AA0003960FB7197F90730002B0ADB0D4997F964
:102AB00007303A68D2B29200D2B20B4483F80023B6
:102AC0000AE00949FB7903F00F03043B3A68D2B2EC
:102AD0009200D2B20B441A760C37BD465DF8047BE7
:102AE000704700BF00E100E000ED00E080B489B075
:102AF00000AFF860B9607A60FB6803F00703FB6120
:102B0000FB69C3F10703062B28BF0623BB61FB69E2
:102B10000633062B02D9FB69013B00E000237B61F1
:102B2000BB69012202FA03F35A1EBB681A407B6993
:102B30009A407B69012101FA03F3591E7B680B401F
:102B4000134318462437BD465DF8047B704700BF29
:102B500080B483B000AF78600B46FB701346BB7047
:102B6000F878FB787A6806339B0013445B6823F09F
:102B70000702BB781A437968831D9B000B445A6097
:102B80000C37BD465DF8047B704700BF80B582B04E
:102B900000AF78603960786839680122FFF79CFAE5
:102BA0000837BD4680BD00BF80B483B000AF7860F9
:102BB0007B681B6C23F00F0343F002027B681A64EE
:102BC0000C37BD465DF8047B704700BF80B582B00E
:102BD00000AF0023FB712D4804212D4AFDF7E8FBCF
:102BE0002C482D49FFF7D2FF2A4800210122FFF788
:102BF000AFFF2848102104220123FFF743FC25489A
:102C0000002104220023FFF765FC2248FFF7CCFFD8
:102C10001E480521214AFDF7CBFB1E48102100224A
:102C2000FFF79AFC1B4810210322FFF7B1FC19485B
:102C300010210522FFF7CAFC164813210522FFF7D1
:102C4000C5FCFFF7FFFE034618463F210022FFF7B1
:102C50004DFF034657201946FFF71EFF5720FFF789
:102C6000FFFEFFF7EFFE034618463F210022FFF765
:102C70003DFF034659201946FFF70EFF5920FFF785
:102C8000EFFEFB7918460837BD4680BD008102483B
:102C90004C52000800000340F8510008045200089C
:102CA00080B500AF0148FFF78FFD80BD00C8FF1F52
:102CB00080B500AF0148FFF70DFE80BD00C8FF1FC3
:102CC00080B483B000AF78600B46FB70FA787B6805
:102CD0009A660C37BD465DF8047B704780B483B0BC
:102CE00000AF78607B684FF40042C3F818210C37BE
:102CF000BD465DF8047B704780B483B000AF786058
:102D00007B68D3F8143103F48053002B14BF0123E4
:102D10000023DBB218460C37BD465DF8047B7047D4
:102D200080B483B000AF78607B68D3F8143103F4CB
:102D30000063002B14BF01230023DBB218460C37BD
:102D4000BD465DF8047B704780B483B000AF786007
:102D50007B684FF48042C3F818210C37BD465DF8FC
:102D6000047B704780B483B000AF78607B68D3F891
:102D7000143103F00803002B14BF01230023DBB23E
:102D800018460C37BD465DF8047B704780B582B0AD
:102D900000AF78600B46FB70FB7823F00403DBB2D6
:102DA00078684FF6FF711A46FFF728F90837BD46D5
:102DB00080BD00BF80B483B000AF78607B689B6C3F
:102DC00018460C37BD465DF8047B704780B483B06D
:102DD00000AF786039607B68DA6C3B681A437B68C7
:102DE000DA640C37BD465DF8047B704780B584B06B
:102DF00000AF78600023FB737B685B68DB689847F3
:102E00000346FB73FB7B18461037BD4680BD00BFF1
:102E100080B586B000AFF860B9607A600423FB75B6
:102E2000FB685B681B7E022B00D01BE00323FB7555
:102E3000BB68002B15D07B68002B12D00223FB75DA
:102E4000FB689B689B7EDBB283F00103DBB2002B47
:102E500007D0F868B9687A6800F03AF80346FB755D
:102E6000FFE700BFFB7D18461837BD4680BD00BF99
:102E700080B586B000AFF860B9607A600423FB7556
:102E8000FB685B685B7E022B00D01BE00323FB75B5
:102E9000BB68002B15D07B68002B12D00223FB757A
:102EA000FB689B68DB7EDBB283F00103DBB2002BA7
:102EB00007D0F868B9687A6800F092F80346FB75A5
:102EC000FFE700BFFB7D18461837BD4680BD00BF39
:102ED00080B588B000AFF860B9607A600323FB76F4
:102EE000FB689B687B617B6901229A76FB685B6863
:102EF0009B7E002B05D0FB681B681846FFF7EEFE93
:102F000006E0FB681B6818464FF48061FFF75EFF20
:102F1000FB681B6818460221FFF7D2FE0023FB6105
:102F20003FE07B695B7E012B0ED1FB681968BA68B4
:102F3000FB6913441B789AB27B691B7E08461146D5
:102F40001A46FFF75BF80FE0BB683B61FB68196846
:102F5000FB695B003A6913441A887B691B7E08464B
:102F600011461A46FFF74AF8FB685B689B7E002B08
:102F700009D000BFFB681B681846FFF7BDFE03467B
:102F8000002BF7D10AE000BFFB681B681846FFF76B
:102F900011FF034603F48063002BF5D0FB69013376
:102FA000FB61FA697B689A42BBD3FB685B689B7ED6
:102FB000002B0BD000BFFB681B681846FFF7B0FE64
:102FC000034683F00103DBB2002BF4D10023FB7630
:102FD0007B6900229A76FB7E18462037BD4680BD6D
:102FE00090B58BB000AFF860B9607A60032387F8C2
:102FF0002330FB689B68FB614FF44043BB61FB6976
:103000000122DA76FB681A68FB689B681B7E104613
:103010001946FFF7BBFEFB685B68DB7E002B05D023
:10302000FB681B681846FFF78FFE05E0FB681B680E
:103030001846B969FFF7CAFEFB681B681846FFF718
:1030400013F8FB681B681846FFF70EF800237B6235
:103050003FE0FB685B68DB7E002B09D000BFFB68AC
:103060001B681846FFF77EFE0346002BF7D110E0E1
:10307000FB681B681846FFF79DFE78617A69BB699B
:103080001340002BF4D0FB681B681846B969FFF7A2
:103090009DFEFB695B7E012B0BD1BA687B6AD4185D
:1030A000FB681B681846FEF7DFFF0346DBB22370A0
:1030B0000CE0BB683B617B6A5B003A69D418FB6833
:1030C0001B681846FEF7D0FF034623807B6A013356
:1030D0007B627A6A7B689A42BBD3002387F82330ED
:1030E000FB690022DA7697F8233018462C37BD4664
:1030F00090BD00BF80B483B000AF78600B46FB701A
:103100001346BB70F878FB787A6806339B0013444B
:103110005B6823F00702BB781A437968831D9B0024
:103120000B445A600C37BD465DF8047B704700BF06
:1031300080B483B000AF78600B46FB70F878FB7802
:103140007A6806339B0013445B6843F480727968A5
:10315000831D9B000B445A600C37BD465DF8047B11
:10316000704700BF80B483B000AF78600B46FB703F
:103170007B685B6B23F07062FB78013B1B061A4394
:103180007B685A630C37BD465DF8047B704700BF0F
:1031900080B483B000AF78600B46FB707B685B6BDC
:1031A00023F47C12FB78013B1B041A437B685A63AF
:1031B0000C37BD465DF8047B704700BF80B483B018
:1031C00000AF78600B46FB707B681B6C23F00F022E
:1031D000FB781A437B681A640C37BD465DF8047BA4
:1031E000704700BF80B582B000AF78603960786802
:1031F00039680122FEF7BCFE0837BD4680BD00BF1E
:1032000080B582B000AF786078680121FFF7D6FF03
:103210000837BD4680BD00BF80B483B000AF786082
:103220007B685B6B43F001027B685A630C37BD46D9
:103230005DF8047B704700BF80B582B000AF786056
:103240000B46FB70FB7878681946FFF78BFF083751
:10325000BD4680BD80B582B000AF78600B46FB7084
:10326000FB7878681946FFF793FF0837BD4680BDA5
:1032700080B582B000AF78600B46FB701346BB7020
:10328000F878FB787A6806339B0013445B6823F078
:10329000500343F010027968831D9B000B445A6071
:1032A000FA78BB78786811461A46FFF723FF08378B
:1032B000BD4680BD80B582B000AF78600B46FB7024
:1032C000FB7878681946FFF733FF0837BD4680BDA5
:1032D00080B582B000AF0023FB712E4B9B680022AB
:1032E0009A762C4B9B680022DA762B480A212B4ACF
:1032F000FDF75EF828480921294AFDF759F82648C4
:103300000021284AFDF754F827482849FFF76AFFAB
:103310002548FFF781FF24480821FFF78DFF224849
:103320000821FFF797FF204800210322FFF7A0FFA5
:103330001D4801210022FFF79BFF1B4802210022AC
:10334000FFF796FF18480221FFF7B4FF1648302117
:1033500004220123FFF796F81348202104220F23AB
:10336000FFF7B8F8104810210222FFF7F5F80E48D1
:10337000FFF746FF084801210D4AFDF719F80648F6
:1033800001210022FEF71AFCFB7918460837BD46DA
:1033900080BD00BF28C8FF1F00800248945200086B
:1033A000A05200087C52000800020248585200084F
:1033B0006452000880B483B000AF78600B46FB70A5
:1033C000FB7801229A407B68DA600C37BD465DF8D5
:1033D000047B704780B483B000AF786039607B684D
:1033E0005A693B685B041A437B685A610C37BD46D7
:1033F0005DF8047B704700BF80B483B000AF786095
:103400007B680122DA600C37BD465DF8047B7047AB
:1034100080B483B000AF786039607B683A681A6125
:103420000C37BD465DF8047B704700BF80B483B0A5
:1034300000AF78600B46FB707B68D3F8A420FB7864
:10344000012101FA03F31A437B68C3F8A4200C3767
:10345000BD465DF8047B704780B483B000AF7860F0
:103460000B46FB707B68D3F8B43023F00602FB7880
:103470005B0003F006031A437B68C3F8B4200C37E3
:10348000BD465DF8047B704780B586B000AF7860BC
:103490000123FB750123BB757B681B7F002B40F06C
:1034A000A4807B681B68D3F88C30184601F024FC9C
:1034B0000346BB75BB7D002B40F093807B689A6808
:1034C0007B681B689B6C10461946FDF7FBFF7B6809
:1034D0009A687B681B685B8810461946FEF78AFA73
:1034E0007B689A687B681B689B88104600211A4697
:1034F000FEF78EFA7B689A687B681B68DB8810464B
:1035000001211A46FEF784FA7B681B689B6CDB7806
:1035100003F00203DBB2002B08D17B681B689B6CB5
:10352000DB7803F00403DBB2002B08D07B685A6819
:103530007B681B68DB6B10461946FDF7FDFF7B6857
:103540009A687B681B6893F8443010461946FFF769
:1035500083FF7B685A687B681B6910461946FFF732
:1035600057FF7B685A687B685B6910461946FFF70E
:103570004FFF7B689A687B681B681B6C1046194676
:10358000FEF7C6FA786800F059F9786800F034F868
:10359000786800F0F5F87B681B68D3F88C301B68FE
:1035A0003B617B681B689B6C1B7BC3F30303DBB233
:1035B000FB60FB683A6922FA03F33B617B683A6976
:1035C0001A627B6801221A770023FB757B681B68EF
:1035D0001B78002B0BD0786800F020FA0346FB75AF
:1035E00005E07B6800221A7701E00223FB75FB7D72
:1035F00018461837BD4680BD80B582B000AF7860F0
:103600007B689A687B681B685B7C104600211A46C1
:10361000FEF716FA7B689A687B681B689B7C1046ED
:1036200002211A46FEF70CFA7B689A687B681B68D1
:10363000DB7C104603211A46FEF702FA7B689A6883
:103640007B681B681B7D104604211A46FEF7F8F9BB
:103650007B689A687B681B685B7D104605211A466B
:10366000FEF7EEF97B689A687B681B689B7D1046C5
:1036700001211A46FEF7E4F97B689A687B681B68AB
:10368000DB7D104608211A46FEF7DAF97B689A6856
:103690007B681B681B7E104609211A46FEF7D0F98D
:1036A0007B689A687B681B685B7E10460A211A4615
:1036B000FEF7C6F97B681B681B7A002B05D07B6878
:1036C0009B6818460021FFF7B1FE7B681B685B7A98
:1036D000002B05D07B689B6818460221FFF7A6FEE9
:1036E0007B681B689B7A002B05D07B689B6818461B
:1036F0000321FFF79BFE7B681B68DB7A002B05D05C
:103700007B689B6818460421FFF790FE7B681B6866
:103710001B7B002B05D07B689B6818460521FFF7B3
:1037200085FE7B681B685B7B002B05D07B689B68F4
:1037300018460121FFF77AFE7B681B689B7B002BF4
:1037400005D07B689B6818460821FFF76FFE7B68F1
:103750001B68DB7B002B05D07B689B681846092122
:10376000FFF764FE7B681B681B7C002B05D07B6821
:103770009B6818460A21FFF759FE0837BD4680BDF1
:1037800080B582B000AF78607B681B6893F84C30DE
:10379000002B0ED07B681B68196D7B681B6893F843
:1037A00054207B681B689B6D084611461A46FCF73F
:1037B000FFFD7B681B6893F85C30002B0ED07B68A4
:1037C0001B68196E7B681B6893F864207B681B6814
:1037D0009B6E084611461A46FCF7EAFD7B681B689B
:1037E00093F86C30002B0ED07B681B68196F7B68D8
:1037F0001B6893F874207B681B689B6F0846114612
:103800001A46FCF7D5FD7B681B6893F87C30002BCB
:1038100010D07B681B68D3F880107B681B6893F816
:1038200084207B681B68D3F88830084611461A4606
:10383000FCF7BEFD0837BD4680BD00BF80B584B033
:1038400002AF78607B689A687B681B68DB6910460A
:1038500001211A46FEF764F87B689A687B681B684A
:103860001B6A104602211A46FEF75AF87B689A68CE
:103870007B681B685B6A104603211A46FEF750F806
:103880007B681B6893F82830002B0ED07B68996802
:103890007B681B6893F828207B681B6893F82930A5
:1038A000084611461A46FDF763FE7B681B6893F8CD
:1038B0002A30002B0ED07B6899687B681B6893F8D0
:1038C0002A207B681B6893F82B30084611461A465D
:1038D000FDF77CFE7B681B6893F82C30002B09D029
:1038E0007B689A687B681B6893F82C3010461946F1
:1038F000FDF748FF7B681B6893F82D30002B09D03B
:103900007B689A687B681B6893F82D3010461946CF
:10391000FDF71EFF7B681B6893F82E30002B09D043
:103920007B689A687B681B6893F82E3010461946AE
:10393000FDF7F4FE7B681B6893F82F30002B13D043
:103940007B689A687B681B6893F82F30104619468D
:10395000FDF768FE7B689A687B681B6893F83030D7
:1039600010461946FDF778FE7B681B6893F83130E6
:10397000002B11D07B6898687B681B6893F8311026
:103980007B681B6893F832207B681B6893F83330A0
:1039900000930323FDF77AFE7B681B6893F83730AA
:1039A000032B1AD17B6899687B681B6893F83920D0
:1039B0007B681B6893F83830084611461A46FDF7B5
:1039C00013FF7B681B6893F83630002B05D07B68AB
:1039D0009B6818460F21FFF7FDFC7B681B6893F876
:1039E0003430002B05D17B681B6893F83530002BF1
:1039F00011D07B6899687B681B681A6A7B681B68B2
:103A00005B6A084611461A46FDF728FF7B689B68EB
:103A10001846FDF7D1FE0837BD4680BD80B584B09D
:103A200000AF78600123FB737B681B7F012B03D001
:103A30007B681B7F032B17D17B685A687B685B7B95
:103A400010461946FFF7B6FC7B681B6893F82830D0
:103A5000002B04D17B689B681846FFF7CDFC7B6880
:103A600002221A770023FB73FB7B18461037BD46F2
:103A700080BD00BF80B483B000AF78600B46FB70A0
:103A8000FB7801229A407B68DA600C37BD465DF80E
:103A9000047B704780B483B000AF78607B685B695B
:103AA00043F400327B685A610C37BD465DF8047BF5
:103AB000704700BF80B483B000AF78607B6801229C
:103AC000DA600C37BD465DF8047B704780B483B084
:103AD00000AF78600B467B807A887B685A630C372E
:103AE000BD465DF8047B704780B483B000AF78605A
:103AF0000B467B807A887B68DA630C37BD465DF8BD
:103B0000047B704780B483B000AF786039607B6815
:103B10003A681A610C37BD465DF8047B704700BFF8
:103B200080B483B000AF78600B46FB707B68D3F83D
:103B3000A420FB78012101FA03F31A437B68C3F840
:103B4000A4200C37BD465DF8047B704780B586B075
:103B500000AF78600123FB750123BB757B681B7F79
:103B6000002B40F08C807B681B68DB6C184601F0F2
:103B7000F1F80346BB75BB7D002B7CD17B689A684E
:103B80007B681B689B6B10461946FDF779F97B68CB
:103B90009A687B681B685B8810461946FFF796FF9A
:103BA0007B689A687B681B689B8810461946FFF7FC
:103BB0009BFF7B681B689B6BDB7803F00203DBB227
:103BC000002B08D07B685A687B681B685B6B1046CB
:103BD0001946FDF739F97B685A687B681B691046FE
:103BE0001946FFF78FFF7B685A687B685B69104650
:103BF0001946FFF787FF786800F0E2F8786800F070
:103C000045F87B681B6893F83C30002B0ED07B682E
:103C10001B68196C7B681B6893F844207B681B68E1
:103C20009B6C084611461A46FCF7C2FB7B681B6872
:103C3000DB6C1B683B617B681B689B6B1B79C3F368
:103C40000303DBB2FB60FB683A6922FA03F33B61D2
:103C50007B683A691A627B6801221A770023FB7538
:103C60007B681B681B78002B0BD0786800F08CF900
:103C70000346FB7505E07B6800221A7701E002230A
:103C8000FB75FB7D18461837BD4680BD80B582B0F8
:103C900000AF78607B681B689B79002B0FD07B6836
:103CA0009A687B681B685B7B104600211A46FDF70B
:103CB0003DFB7B689B6818460021FFF731FF7B685E
:103CC0001B68DB79002B0FD07B689A687B681B68C8
:103CD0009B7B104602211A46FDF728FB7B689B68F8
:103CE00018460221FFF71CFF7B681B681B7A002B1C
:103CF0000FD07B689A687B681B68DB7B10460321CA
:103D00001A46FDF713FB7B689B6818460321FFF7F3
:103D100007FF7B681B685B7A002B0FD07B689A6873
:103D20007B681B681B7C104601211A46FDF7FEFAD2
:103D30007B689B6818460121FFF7F2FE7B681B68D1
:103D40009B7A002B0FD07B689A687B681B685B7C32
:103D5000104608211A46FDF7E9FA7B689B68184669
:103D60000821FFF7DDFE7B681B68DB7A002B0FD094
:103D70007B689A687B681B689B7C104609211A4601
:103D8000FDF7D4FA7B689B6818460921FFF7C8FE47
:103D90007B681B681B7B002B0FD07B689A687B6855
:103DA0001B68DB7C10460A211A46FDF7BFFA7B68C8
:103DB0009B6818460A21FFF7B3FE0837BD4680BD51
:103DC00080B582B000AF78607B689A687B681B68BA
:103DD0005B69104601211A46FDF73EFA7B689A6836
:103DE0007B681B689B69104602211A46FDF734FA6E
:103DF0007B689A687B681B68DB69104603211A465A
:103E0000FDF72AFA7B681B6893F82030002B0ED050
:103E10007B6899687B681B6893F820207B681B6827
:103E200093F82130084611461A46FDF75FF87B6883
:103E30001B6893F82230002B0ED07B6899687B6852
:103E40001B6893F822207B681B6893F82330084690
:103E500011461A46FDF778F87B681B6893F8243002
:103E6000002B09D07B689A687B681B6893F8243024
:103E700010461946FDF722F97B681B6893F8253038
:103E8000002B09D07B689A687B681B6893F8253003
:103E900010461946FDF7F8F87B681B6893F8263042
:103EA000002B09D07B689A687B681B6893F82630E2
:103EB00010461946FDF7CEF87B681B6893F827304B
:103EC000002B09D07B689A687B681B6893F82730C1
:103ED00010461946FDF764F87B681B6893F8283094
:103EE000002B0FD07B6898687B681B6893F82810BC
:103EF0007B681B6893F829207B681B6893F82A303D
:103F0000FDF768F87B681B6893F82E30032B19D1F6
:103F10007B6899687B681B6893F830207B681B6816
:103F200093F82F30084611461A46FDF7F9F87B68DA
:103F30001B6893F82D30002B04D07B689B681846D3
:103F4000FFF7A8FD7B681B6893F82B30022B17D175
:103F50007B681B6893F82C30032B11D17B68996820
:103F60007B681B689A697B681B68DB690846114699
:103F70001A46FDF70FF97B689B681846FDF7B8F8FD
:103F80000837BD4680BD00BF80B584B000AF786003
:103F90000123FB737B681B7F012B03D07B681B7F96
:103FA000032B17D17B685A687B685B7B10461946E8
:103FB000FFF760FD7B681B6893F82030002B04D16D
:103FC0007B689B681846FFF775FD7B6802221A77AD
:103FD0000023FB73FB7B18461037BD4680BD00BF36
:103FE00080B483B000AF0346FB7197F90730002B14
:103FF0000CDB094997F907305B09FA7902F01F02D7
:10400000012000FA02F2603341F823200C37BD464C
:104010005DF8047B704700BF00E100E080B483B02E
:1040200000AF786039607B681A6C3B68DB431A40EC
:104030007B681A640C37BD465DF8047B704700BF8F
:1040400080B483B000AF78607B689B6BDBB223F0F9
:104050007F03DBB218460C37BD465DF8047B704722
:1040600080B483B000AF786039607B68D3F80821F2
:104070003B681A437B68C3F808210C37BD465DF8DE
:10408000047B704780B483B000AF786039607B6890
:10409000D3F808213B68DB431A407B68C3F808214A
:1040A0000C37BD465DF8047B704700BF80B483B019
:1040B00000AF78607B68D3F8143103F48053002B91
:1040C00014BF01230023DBB218460C37BD465DF850
:1040D000047B704780B483B000AF78607B68D3F80E
:1040E000143103F40063002B14BF01230023DBB25F
:1040F00018460C37BD465DF8047B704780B483B02A
:1041000000AF786039607B68D3F80C213B68DB43F3
:104110001A407B68C3F80C210C37BD465DF8047B60
:10412000704700BF80B483B000AF78607B68D3F87D
:10413000143103F00803002B14BF01230023DBB26A
:1041400018460C37BD465DF8047B704780B483B0D9
:1041500000AF78607B689B6C18460C37BD465DF8F5
:10416000047B704780B483B000AF786039607B68AF
:10417000DA6C3B681A437B68DA640C37BD465DF83D
:10418000047B704780B584B000AFF860B9607A6096
:10419000FB681A68BB68DBB2104619467A68FEF7FE
:1041A000C3F91037BD4680BD80B582B000AF7860DE
:1041B0007B681B681846FFF779FF034618460837E7
:1041C000BD4680BD80B582B000AF78607B681B685B
:1041D0001846FFF7A7FF034618460837BD4680BDBF
:1041E00080B582B000AF78607B681B681846FDF729
:1041F00067FE034618460837BD4680BD80B582B0CD
:1042000000AF78600B46FB707B681A68FB7810463D
:104210001946FDF7E3FD0837BD4680BD80B582B085
:1042200000AF786039607B681B6818463968FDF715
:1042300061FE0837BD4680BD80B582B000AF7860B2
:104240007B681B681846FDF7EFFD0837BD4680BD4B
:1042500080B582B000AF78607B681B681846FDF7B8
:1042600009FE0837BD4680BD80B582B000AF7860DA
:104270007B681B6818461021FFF774FF7B681B687A
:104280001846FDF785FD0837BD4680BD80B485B072
:1042900000AF786039607A683B689A4202D27B68E6
:1042A000FB6001E03B68FB60FB6818461437BD46C5
:1042B0005DF8047B704700BF80B584B000AF7860C4
:1042C0007B68002B06D07B685B685B68984700239F
:1042D000FB7301E00123FB73FB7B18461037BD46DF
:1042E00080BD00BF80B584B000AF786039607B6866
:1042F0001B681846FFF72AFFF860FA683B6813400E
:1043000018461037BD4680BD80B582B000AF7860DA
:1043100039607B681B6818463968FFF723FF083748
:10432000BD4680BD80B584B000AF78607B689B6877
:10433000BB600023FB7378684FF4B171FFF7D2FFC5
:104340000346002B11D07B681B6818464FF0804154
:10435000FFF798FE7B681B6818464FF40051FFF783
:104360005DFE786800F096FA05E1BB689B69002B5A
:1043700040F082807B685B6893F82630002B5AD02F
:10438000BB68DA68BB689B689A422ED278684FF0A7
:104390008041FFF743FF7B681B6818464FF0804160
:1043A000FFF75EFE17E0BB68DA68BB689B689A425D
:1043B0000FD2BB681A68BB68DB6813441B78786847
:1043C0001946FFF71BFFBB68DB685A1CBB68DA6045
:1043D00001E000BFCFE07868FFF7E6FE034683F018
:1043E0000103DBB2002BDED1C5E07B681B681846F9
:1043F0004FF08041FFF746FE7B685B6893F82830FA
:104400005BB21846FFF7ECFD00BF7B681B681846DF
:10441000FFF760FE034683F00103DBB2002BF4D10B
:10442000BB6893F82830DBB2002B00F0A4807868DA
:1044300000F0A4F89FE0BB68DA68BB689B689A420A
:104440000FD2BB681A68BB68DB6813441B787868B6
:104450001946FFF7D3FEBB68DB685A1CBB68DA60FD
:1044600089E0BB6893F82830DBB2002B00F0838032
:10447000786800F083F87EE07B685B6893F826300C
:10448000002B54D07B685B6893F82730002B15D045
:104490007B685B6893F826301A46012303FA02F220
:1044A0007B685B6893F82730194601238B401046E0
:1044B0001946FFF7EBFE0346FB7301E00223FB7393
:1044C0007B681B6818464FF08041FFF7DBFD23E057
:1044D000BB68DA68BB689B689A421CD2BB68DB6821
:1044E0005A1CBB689B689A4207D1BB681B6A012BA8
:1044F00003D17868FFF7ACFE02E07868FFF79CFE16
:10450000BB68DB685A1CBB68DA60BB68DA68FB7B97
:104510009A4201D30AE009E07868FFF745FE0346B6
:1045200083F00103DBB2002BD2D117E016E0BB68A9
:10453000DB685A1CBB689B689A4207D1BB681B6A40
:10454000012B03D17868FFF783FE02E07868FFF75C
:1045500073FEBB68DB685A1CBB68DA607B689B68CB
:10456000DA687B689B689B689A4204D178684FF050
:104570008041FFF753FE1037BD4680BD80B584B043
:1045800000AF78607B689B68FB6078684FF0804183
:10459000FFF744FEFB68DB69012B06D1FB680022B4
:1045A00083F828207868FFF75FFE00BF7B681B68F0
:1045B0001846FFF745FD0346802BF7D0FB68002225
:1045C00083F826207B685B681B69002B03D07B681F
:1045D0005B681B6998471037BD4680BD90B585B0B4
:1045E00000AF78607B689B68BB600023FB73BB688F
:1045F00093F82730DBB2002B00F011817B685B68F9
:1046000093F82730002B00F0C78020E0BB685A6881
:10461000BB685B69D4187868FFF7E2FD0346237036
:10462000BB685B695A1CBB685A61BB685A69BB6846
:104630001B699A420BD1BB68002283F827207B6854
:104640001B6818464FF0C041FFF758FD08E0786836
:10465000FFF7B8FD034683F00103DBB2002BD5D191
:10466000BB685A69BB681B699A4277D2BB681A69F2
:10467000BB685B69D31A7868194600F04FF97B680C
:104680005B6893F82630002B15D07B685B6893F845
:1046900026301A46012303FA02F27B685B6893F81E
:1046A0002730194601238B4010461946FFF7EEFDCF
:1046B0000346BB7301E00223BB737B685B6893F81E
:1046C0002630002B33D027E0BB68DA68BB689B68D4
:1046D0009A4220D2BB68DB685A1CBB689B689A422E
:1046E00007D1BB681B6A012B03D17868FFF7B0FDC7
:1046F00002E07868FFF7A0FDBB68DB685A1CBB6866
:10470000DA60FB7B0133FB73FA7BBB7B9A4203D3FA
:104710000023FB730AE009E07868FFF745FD0346D4
:1047200083F00103DBB2002BCED117E016E0BB68AB
:10473000DB685A1CBB689B689A4207D1BB681B6A3E
:10474000012B03D17868FFF783FD02E07868FFF75B
:1047500073FDBB68DB685A1CBB68DA60BB685A69CA
:10476000BB681B699A425AD17B681B6818464FF098
:10477000C041FFF7C3FC7B681B6818464FF44041FB
:10478000FFF74CFCBB6893F82830DBB2002B46D017
:10479000786800F047F842E0BB685A68BB685B691C
:1047A000D4187868FFF71CFD03462370BB685B696B
:1047B0005A1CBB685A61BB685A69BB681B699A423C
:1047C0001DD2BB68DA68BB689B689A4227D2BB6877
:1047D000DA68BB689B68013B9A4207D1BB681B6AD9
:1047E000012B03D17868FFF733FD02E07868FFF70B
:1047F00023FDBB68DB685A1CBB68DA600FE07B688E
:104800001B6818464FF44041FFF708FCBB6893F85B
:104810002830DBB2002B02D0786800F003F81437A0
:10482000BD4690BD80B584B000AF78607B689B6862
:10483000FB60FB68DB69012B0FD100BF7B681B6845
:104840001846FFF7FDFB0346802BF7D0FB680022DC
:1048500083F828207868FFF707FD00BF7B681B6896
:104860001846FFF7EDFB0346802BF7D0FB680022CC
:1048700083F82720FB68002283F826207B685B688A
:104880005B69002B03D07B685B685B6998471037D6
:10489000BD4680BD80B584B000AF78607B681B6882
:1048A0001846FFF753FCF8607B685B689B69002B38
:1048B0000CD0FB6803F02003002B07D07868202180
:1048C000FFF722FD7B685B689B6998477B685B68A4
:1048D000DB69002B0CD0FB6803F04003002B07D0F2
:1048E00078684021FFF710FD7B685B68DB699847BB
:1048F0007B685B681B6A002B0DD0FB6803F4817337
:10490000002B08D078684FF48071FFF7FDFC7B68BE
:104910005B681B6A98471037BD4680BD80B586B07E
:1049200000AF786039607B685B6893F827301A467F
:1049300001239340BB757B685B6893F82630002B9E
:1049400008D07B685B6893F826301A4601239340B1
:10495000FB7501E00123FB75FA7DBB7D104619460E
:10496000FFF794FC386138683969FFF78FFC03461C
:10497000FB737B685B6893F827301A46FB7B013B2F
:10498000786811461A46FFF7FDFB1837BD4680BD13
:1049900080B400AF044BDB6803F4E0631B0A1846E5
:1049A000BD465DF8047B704700ED00E080B483B045
:1049B00000AF0346FB7197F90730002B0BDB08496A
:1049C00097F907305B09FA7902F01F02012000FA1B
:1049D00002F241F823200C37BD465DF8047B704796
:1049E00000E100E080B483B000AF03463960FB71A2
:1049F00097F90730002B0ADB0D4997F907303A6821
:104A0000D2B29200D2B20B4483F800230AE00949E3
:104A1000FB7903F00F03043B3A68D2B29200D2B2A2
:104A20000B441A760C37BD465DF8047B704700BF17
:104A300000E100E000ED00E080B489B000AFF86074
:104A4000B9607A60FB6803F00703FB61FB69C3F19F
:104A50000703062B28BF0623BB61FB690633062B21
:104A600002D9FB69013B00E000237B61BB690122A5
:104A700002FA03F35A1EBB681A407B699A407B69AD
:104A8000012101FA03F3591E7B680B4013431846BA
:104A90002437BD465DF8047B704700BF80B483B007
:104AA00000AF78600B46FB701346BB70F878FB785C
:104AB0007A6806339B0013445B6823F00702BB78D7
:104AC0001A437968831D9B000B445A600C37BD461E
:104AD0005DF8047B704700BF80B483B000AF78609E
:104AE00039607B68D3F808213B681A437B68C3F8B8
:104AF00008210C37BD465DF8047B704780B483B055
:104B000000AF786039607B68D3F80C213B681A43AA
:104B10007B68C3F80C210C37BD465DF8047B7047F9
:104B200080B483B000AF78600B46FB707B681B6C71
:104B300023F00F02FB781A437B681A640C37BD46DA
:104B40005DF8047B704700BF80B582B000AF78602D
:104B50003960786839680122FDF772F80837BD4678
:104B600080BD00BF80B582B000AF78607868042156
:104B7000FFF7D6FF0837BD4680BD00BF80B500AF48
:104B800005480E210022FCF7D9FF04480B21002222
:104B9000FCF7D4FF80BD00BF0082024800800248BD
:104BA00080B500AFD02306480E211A46FCF7C6FF99
:104BB000D02304480B211A46FCF7C0FF80BD00BF7C
:104BC000008202480080024880B582B000AF002316
:104BD0007B604FF0C0433B6032483349FFF7B4FF7E
:104BE000304800210322FFF759FF2E4801210022FF
:104BF000FFF754FF2B48102104220123FDF742FC4C
:104C0000284810210122FDF7C3FC26487968FFF7E8
:104C100063FF2448002104220F23FDF75BFC214899
:104C200010210022FDF7D2FC1E4813210022FDF7BF
:104C3000CDFC1C483968FFF761FF1A481021022299
:104C4000FDF78AFC1748FFF78DFF18480E21184A18
:104C5000FBF7AEFB17480B21174AFBF7A9FBFFF741
:104C600097FE034618463F210022FFF7E5FE034664
:104C70005B201946FFF7B6FE5B20FFF797FEFFF7B4
:104C800087FE034618463F210022FFF7D5FE034664
:104C90005A201946FFF7A6FE5A20FFF787FE08376D
:104CA000BD4680BD000002488C59000800820248C1
:104CB00074590008008002488059000880B500AF90
:104CC0000148FFF72FFB80BD70CAFF1F80B500AF02
:104CD0000148FFF783FC80BD70CAFF1F80B483B01A
:104CE00000AF78607B684FF48072DA600C37BD46A5
:104CF0005DF8047B704700BF80B582B000AF78607C
:104D00007B685B7B83F00103DBB2002B0FD07B68F9
:104D10009A687B681B7B10461946FCF7B5FB7B68DD
:104D20009B681846FFF7DAFF7B6801225A7300235D
:104D300018460837BD4680BD80B483B000AF7860A8
:104D40007B684FF48072DA600C37BD465DF8047BF7
:104D5000704700BF80B582B000AF78607B685B7B36
:104D600083F00103DBB2002B0FD07B689A687B686D
:104D70001B7B10461946FCF749F87B689B68184670
:104D8000FFF7DAFF7B6801225A73002318460837C1
:104D9000BD4680BD80B582B000AF78607B68196881
:104DA0007B681A7C7B680433084611461A46FBF779
:104DB000FFFA7B6819687B681A7C7B685B7C084615
:104DC00011461A46FCF7FAFE002318460837BD467E
:104DD00080BD00BF80B485B000AF78607B6803F011
:104DE0000703FB600C4BDB68BB60BA684FF6FF0340
:104DF0001340BB60FB681A02BB68134343F0BF63F8
:104E000043F40033BB60044ABB68D3601437BD462B
:104E10005DF8047B704700BF00ED00E080B582B014
:104E200000AF0120FFF7D6FF72B6214B214A9A60EE
:104E3000BFF34F8F62B61E4A1D4BD3F8883043F440
:104E40007003C2F888301C4B03F5805314331B6881
:104E50007B607B6823F00F037B607B6843F0020379
:104E60007B60154B03F5805314337A681A60104A3F
:104E70000F4B5B6923F0100353610D4A0C4B5B69C8
:104E800023F0080353610A4A094B5B6A23F4803319
:104E90005362074A064B5B6A23F400335362044AA9
:104EA000034B5B6A23F4802353620837BD4680BD01
:104EB00000ED00E0000000080010005880B485B04C
:104EC00000AF78600023FB737B6801221A70FB7BC4
:104ED00018461437BD465DF8047B7047B0B586B000
:104EE00000AF0B4B3C1D1D460FCD0FC42B6823603C
:104EF0003B1D1846FBF750FB0020FBF761FC002030
:104F0000FBF72AFC0120FBF7E7FC1837BD46B0BDD4
:104F1000745A000880B582B000AF0023FB71654869
:104F2000FFF7CCFF0346FB71FB79002B04D16248ED
:104F3000FEF7AAFA0346FB71FB79002B04D15F4808
:104F4000FEF7A2FA0346FB71FB79002B04D15C4803
:104F5000FEF79AFA0346FB71FB79002B04D15948FE
:104F6000FEF792FA0346FB71FB79002B04D15648F9
:104F7000FEF7ECFD0346FB71FB79002B04D153488F
:104F8000FEF7E4FD0346FB71FB79002B04D150488A
:104F9000FEF7DCFD0346FB71FB79002B04D14D4885
:104FA000FEF7D4FD0346FB71FB79002B04D14A4880
:104FB000FEF7CCFD0346FB71FB79002B04D147487B
:104FC000FEF7C4FD0346FB71FB79002B04D1444876
:104FD000FEF7BCFD0346FB71FB79002B04D1414871
:104FE000FEF7B4FD0346FB71FB79002B04D13E486C
:104FF000FFF762F90346FB71FB79002B04D13B48B4
:10500000FDF7D0FB0346FB71FB79002B04D1384838
:10501000FFF7C0FE0346FB71FB79002B04D1354836
:10502000FFF7B8FE0346FB71FB79002B04D1324831
:10503000FFF7B0FE0346FB71FB79002B04D12F482C
:10504000FFF7A8FE0346FB71FB79002B04D12C4827
:10505000FFF7A0FE0346FB71FB79002B04D1294822
:10506000FFF798FE0346FB71FB79002B04D126481D
:10507000FFF790FE0346FB71FB79002B04D1234818
:10508000FFF788FE0346FB71FB79002B04D1204813
:10509000FFF780FE0346FB71FB79002B04D11D480E
:1050A000FDF7A4FE0346FB71FB7918460837BD46A1
:1050B00080BD00BFC8CAFF1F34C8FF1F68C8FF1FDC
:1050C0009CC8FF1FD0C8FF1F04C9FF1F2CC9FF1FAA
:1050D00054C9FF1F7CC9FF1FA4C9FF1FCCC9FF1FF4
:1050E000F4C9FF1F1CCAFF1F70CAFF1F00C8FF1FA3
:1050F000C0590008D4590008E8590008FC590008B4
:10510000105A0008245A0008385A00084C5A00085F
:10511000605A000828C8FF1F80B483B000AF7860D1
:105120000B46FB707B685A6AFB7822FA03F303F0A4
:10513000010318460C37BD465DF8047B704700BF7D
:1051400080B500AFFFF7E6FE104855210A2200F0B7
:105150004BF80F4800210A2200F046F80D480921BB
:105160000022FCF7EBFC0C4808490A22FDF750FE30
:10517000094807490A22FDF77BFE00BF05480921BF
:10518000FFF7CAFF0346012BF8D0ECE7D8CAFF1F90
:10519000CCCAFF1F0080024828C8FF1F70B50E4B05
:1051A0000E4CE41AA41000251E46A54204D056F861
:1051B000253098470135F8E7FDF768FA084C094BA8
:1051C000E41AA41000251E46A54204D056F8253046
:1051D00098470135F8E770BDACCAFF1FACCAFF1F86
:1051E000ACCAFF1FACCAFF1F02440346934202D061
:1051F00003F8011BFAE77047004B000000080801A4
:1052000010000000900000000100000002000000FB
:10521000008102480500000004520008F85100080F
:10522000CD2B00080000000000000000000000007E
:10523000000000000000000000000000000000006E
:1052400010520008000000040403000000000000E9
:10525000010000000200000000000000000100004A
:1052600000000000900000000100000001000000AC
:1052700000800248645200080001000000000000A5
:105280000100000000000000008002487C5200087D
:10529000000000000000000001000000010000000C
:1052A000000000000100000001000000585200084A
:1052B0007052000888520008D13200080000000037
:1052C00000000000020204040000030000000000CF
:1052D00000000000140000000000000000000100B9
:1052E00000000100000001000000000000000000BC
:1052F0000000000098000000000001000400000011
:1053000000001F0327028F010000000000000000C2
:10531000000000000000000000000000DC52000857
:10532000E0520008E4520008000000000000000005
:105330000000000000000000010000000000000468
:10534000E852000801000000CC52000801000000F3
:105350000080024805000000F45200080000000030
:10536000000000000000000000000000000000003D
:10537000000000000000000000000000000000002D
:105380000000000000000000000000007CCAFF1FB9
:1053900000000000000000001400000000000000F9
:1053A00000000100000001000000010000000000FA
:1053B0000000000000000000980000000000010054
:1053C0000400000000001F0327028F0100000000FE
:1053D00000000000000000000000000000000000CD
:1053E000A0530008A4530008A853000800000000C0
:1053F00000000000000000000000000001000000AC
:1054000000000008AC5300080100000090530008A1
:10541000010000000080024804000000B8530008AA
:10542000000000000000000000000000000000007C
:10543000000000000000000000000000000000006C
:10544000000000000000000000000000000000005C
:105450007CCAFF1F000000000000000014000000D4
:105460000000000000000100000001000000010039
:105470000000000000000000000000009800000094
:10548000000001000400000098000000000001007E
:105490000400000000001F0327028F01000000002D
:1054A00000000000000000000000000000000000FC
:1054B00064540008685400086C54000800000000A0
:1054C00000000000000000000000000001000000DB
:1054D000000000107054000801000000545400083F
:1054E0000100000000800248030000007C54000816
:1054F00000000000000000000000000000000000AC
:1055000001000000008202480900000088540008E1
:10551000000000000000000000000000000000008B
:105520007CCAFF1F00000000000000001400000003
:105530000000000000000100000001000000010068
:1055400000000000000000000000000098000000C3
:1055500000000100040000009800000000000100AD
:105560000400000000001F0327028F01000000005C
:10557000000000000000000000000000000000002B
:1055800034550008385500083C550008000000005C
:10559000000000000000000000000000010000000A
:1055A00000000020405500080100000024550008BC
:1055B0000100000000800248060000004C55000871
:1055C00000000000000000000000000000000000DB
:1055D0000100000000820248080000005855000841
:1055E00000000000000000000000000000000000BB
:1055F0007CCAFF1F00000000000000000000010046
:1056000000000100000001009800000000000100FF
:105610000400000000001F039001000000000000D3
:105620000000000000000000FC55000800560008C3
:105630000456000800000000000000000000000008
:10564000000000010000000000000004F455000804
:105650000100000000810248030000000856000815
:105660008CCAFF1F000000000000000000000100C5
:10567000000001000000010098000000000001008F
:105680000400000000001F03900100000000000063
:1056900000000000000000006C5600087056000872
:1056A0007456000800000000000000000000000028
:1056B000000000010000000000000008645600081F
:1056C0000100000000810248020000007856000836
:1056D0008CCAFF1F00000000000000000000010055
:1056E000000001000000010098000000000001001F
:1056F0000400000000001F039001000000000000F3
:105700000000000000000000DC560008E056000821
:10571000E456000800000000000000000000000047
:10572000000000010000000000000010D456000836
:10573000010000000081024801000000E856000856
:105740008CCAFF1F000000000000000000000100E4
:1057500000000100000001009800000000000100AE
:105760000400000000001F03900100000000000082
:1057700000000000000000004C57000850570008CF
:105780005457000800000000000000000000000066
:105790000000000100000000000000204457000845
:1057A0000100000000810248000000005857000876
:1057B0008CCAFF1F00000000000000000000010074
:1057C000000001000000010098000000000001003E
:1057D0000400000000001F03900100000000000012
:1057E0000000000000000000BC570008C05700087F
:1057F000C457000800000000000000000000000086
:10580000000000010000000000000004B457000880
:10581000010000000082024805000000C85700088F
:105820009CCAFF1F000000000000000000000100F3
:1058300000000100000001009800000000000100CD
:105840000400000000001F039001000000000000A1
:1058500000000000000000002C580008305800082C
:1058600034580008000000000000000000000000A4
:10587000000000010000000000000008245800089B
:1058800001000000008202480400000038580008AF
:105890009CCAFF1F00000000000000000000010083
:1058A000000001000000010098000000000001005D
:1058B0000400000000001F03900100000000000031
:1058C00000000000000000009C580008A0580008DC
:1058D000A4580008000000000000000000000000C4
:1058E00000000001000000000000001094580008B3
:1058F000010000000082024803000000A8580008D0
:105900009CCAFF1F00000000000000000000010012
:1059100000000101000001009800000000000100EB
:105920000400000000001F039001000000000000C0
:1059300000000000000000000C5900081059000889
:1059400014590008000000000000000000000000E2
:1059500000000001000000000000002004590008C1
:1059600001000000008202480200000018590008EF
:105970009CCAFF1FD00000000100000000000000D2
:10598000D00000000100000000000000801A0600A6
:10599000000000008C590008C94B0008A14B00080A
:1059A0007D4B000800000000000000000000000027
:1059B0000000000000000000000004045B5A00002A
:1059C000008202488000000000000100000000008A
:1059D0000600000000820248800000000000010074
:1059E0000000000007000000008202488000000064
:1059F00000000100000000000000000000820248DA
:105A00008000000000000100000000000100000014
:105A1000008102488000000000000100000000003A
:105A20000900000000810248800000000000010021
:105A30000000000008000000008002488000000014
:105A40000000010000000000070000000080024884
:105A500080000000000001000000000002000000C3
:105A600000830248C00000000000010000000000A8
:105A700000000000280304010101000000000000F4
:085A8000000001000101010119
:105A8800000003401C520008ACCAFF1F00000000C1
:105A980000000000000000000000000000000000FE
:105AA800000000000001000000020248AC5200089B
:105AB8000CC8FF1F0053000800000240000102400C
:105AC80000000000010000000200000004000000C7
