:020000040C00EE
:100000000008001001020008B1020008B102000857
:10001000B1020008B1020008B102000800000000AF
:10002000000000000000000000000000B102000815
:10003000B102000800000000B1020008B10200088F
:10004000B1020008B1020008B1020008B1020008C4
:10005000B1020008B1020008B1020008B1020008B4
:10006000B1020008000000000000000000000000D5
:10007000B102000800000000B1020008B10200084F
:10008000B1020008B1020008B1020008B102000884
:10009000B1020008B1020008B1020008B102000874
:1000A000B1020008B1020008B1020008B102000864
:1000B000B1020008B1020008B1020008B102000854
:1000C000B1020008B1020008B1020008B102000844
:1000D000B1020008B1020008B1020008B102000834
:1000E000B1020008B1020008B1020008B102000824
:1000F000B1020008B1020008B1020008B102000814
:10010000B1020008B1020008B1020008B102000803
:10011000B1020008B1020008B1020008B1020008F3
:10012000B1020008B1020008B1020008B1020008E3
:10013000B1020008B1020008B1020008B1020008D3
:10014000B1020008B1020008B1020008B1020008C3
:10015000B1020008B1020008B1020008B1020008B3
:10016000000000000000000000000000000000008F
:10017000B1020008B1020008B1020008B102000893
:10018000B1020008B1020008B1020008B102000883
:10019000B1020008B1020008B1020008B102000873
:1001A000B1020008B1020008B9250008A92500081D
:1001B000B1020008B1020008B1020008B102000853
:1001C000B1020008B1020008B1020008B102000843
:1001D000B1020008B1020008B102000800000000EE
:1001E000B1020008B1020008B1020008B102000823
:1001F0000000000000000000B10200080000000044
:10020000DFF88CD023488047234C244DAC4209DAD8
:1002100021686268A368043BA2BFC858D050FAE7BF
:100220000C34F3E71E4B1F4CA34208DA19685A68D6
:100230000020043AA4BF8850FBE70833F4E71A48CB
:1002400080471A4880470000143D000C0000002041
:1002500020020000343F000C0000003000000000CD
:10026000143D000C0008001000000000143D000CBC
:100270000008001000000000200200204C000000D8
:100280000000003000000000000800100000000026
:1002900000080010B50200084802000878020008B3
:1002A00078020008900200085D3500084535000816
:1002B000FEE7000098B500AF054A4FF00053144622
:1002C0000FCB84E80F0002F073FF02F0D1FF98BD5E
:1002D000C4FF002080B584B000AF2F4BDB6803F46F
:1002E0008033002B3ED02D4BDB6803F00103002B45
:1002F00002D02B4BFB6002E000F056F8F860274B71
:100300001B6803F00403002B20D0244B9B6803F0F0
:1003100070631B0E0133BB60204B9B6803F4FE43EC
:100320001B0A01337B601D4B9B6803F4FE031B0C0F
:1003300001333B60BB683A6802FB03F3FA68B2FB27
:10034000F3F37A6802FB03F3FB600DE0134B9B6849
:1003500003F07F0301333B60FA683B68B2FBF3F3C1
:10036000FB6001E00E4BFB600B4BDB68DBB2013343
:10037000FA68B2FBF3F3FB60074B1B6903F0010360
:100380000133FA68B2FBF3F3FB60064AFB681360C3
:100390001037BD4680BD00BF0046005010470050DA
:1003A00000366E01C0FF002080B400AF024B18463B
:1003B000BD465DF8047B7047001BB70080B485B074
:1003C00000AFF8600B467A60FB72FB7A9B08DBB2E9
:1003D0001846FB7A9B08DBB21A46FB68043253F8D6
:1003E0002220FB7A03F00303DB001946F8238B403D
:1003F000DB4302EA0301FB68021D43F82210FB689D
:100400005A6FFB7A5B00194603238B40DB431A408B
:10041000FB685A67FB683A4A934203D0FB68394A43
:1004200093420AD1FB681A6EFB7A012101FA03F3A9
:10043000DB431A40FB681A6642E07B681B78DBB23C
:100440005BB2002B3CDA7B685A68FB7A9A40FB6807
:100450005A60FB7ADB08DBB21846FB7ADB08DBB2BA
:100460001A46FB68103253F82220FB7A03F0070388
:100470009B00194607238B40DB4302EA0301FB681C
:1004800000F1100243F82210FB7ADB08DBB21846B9
:10049000FB7ADB08DBB21A46FB68103253F82220E5
:1004A0007B681B7A1946FB7A03F007039B0001FA6D
:1004B00003F342EA0301FB6800F1100243F8221043
:1004C000FB7A9B08DBB21846FB7A9B08DBB21A4624
:1004D000FB68043253F822207B681B781946FB7AAC
:1004E00003F00303DB0001FA03F342EA0301FB68B4
:1004F000021D43F822101437BD465DF8047B704797
:10050000008E0248008F024880B400AF034B1B6886
:100510001846BD465DF8047B704700BFC0FF002051
:1005200080B400AF034BD3F8C4301846BD465DF825
:10053000047B70470040005080B584B000AF786005
:10054000FFF7C8FE0B4B1B680B4AA2FB03239A0C58
:100550007B6802FB03F37B600023FB6003E000BFCA
:10056000FB680133FB60FA687B689A42F7D3103767
:10057000BD4680BDC0FF002083DE1B4380B400AFBA
:10058000034B5B681846BD465DF8047B704700BFAF
:100590007440005080B483B000AF7860034A7B6839
:1005A000D3600C37BD465DF8047B70477440005043
:1005B000B0B584B002AF7860002000F0C5F800F05C
:1005C000F5F97B68DB79002B0AD000F02DFA00BF2B
:1005D00000F018FA034683F00103DBB2002BF7D1D9
:1005E0007B685B7A184600F015F900BFFFF798FFAB
:1005F0000346002BFAD17B681B7A184600F0B0F94D
:100600007B681B7C184600F023F97B685B7C1846EE
:1006100000F046F97B689B7C184600F02DF97B685A
:10062000DB7C184600F050F97B689B79002B0AD0E0
:1006300000F032FA00BF00F057FA034683F00103DE
:10064000DBB2002BF7D17B68DB78002B09D17B680C
:100650009B7983F00103DBB2002B17D000F068FA1E
:1006600014E000F055FA7B6899887B68DA787B683B
:100670005B781D467B681B781C467B689B780093E3
:10068000084611462A46234600F062FA7B68DB687A
:10069000B3F5803F03D14FF4803000F055F8FFF7F9
:1006A00019FE0837BD46B0BD80B485B000AF786094
:1006B0007B681B0FFB607B6823F07043BB60FA68AC
:1006C00013465B0013449B001A46044B1344BA685C
:1006D0001A601437BD465DF8047B7047144400501F
:1006E00080B485B000AF78607B681B0FFB607B68CF
:1006F00023F07043BB60FA6813465B0013449B0011
:100700001A46084B13441A68BB681340002B14BFE9
:1007100001230023DBB218461437BD465DF8047B85
:10072000704700BF0C44005080B500AFFFF7ECFEEF
:100730000246044B5B6903F0010322FA03F31846F7
:1007400080BD00BF0046005080B483B000AF786029
:100750000649064BDB6823F480327B681343CB6089
:100760000C37BD465DF8047B704700BF0046005063
:1007700080B483B000AF78600649064B5B6A23F40F
:1007800040327B6813434B620C37BD465DF8047BF7
:10079000704700BF0046005080B483B000AF0346EE
:1007A000FB80FB88002B08D10A4A0A4BDB6823F444
:1007B000807323F00103D36007E0064A054BDB6832
:1007C00043F4807343F00103D3600C37BD465DF8FA
:1007D000047B70471047005080B483B000AF0346DD
:1007E000FB7100BF094BD3F8C43003F00803002BA2
:1007F000F8D10749064BDB6823F04002FB7913432D
:10080000CB600C37BD465DF8047B7047004000505C
:100810000043005080B483B000AF0346FB7100BFBB
:10082000094BD3F8C43003F00803002BF8D1074973
:10083000064BDB6823F08002FB791343CB600C3757
:10084000BD465DF8047B70470040005000430050F7
:1008500080B483B000AF78600649064BDB6823F0B4
:10086000FF027B68013B1343CB600C37BD465DF84C
:10087000047B70470046005080B483B000AF7860BE
:100880000649064B1B6A23F001027B68013B1343B8
:100890000B620C37BD465DF8047B70470046005084
:1008A00080B483B000AF78600649064B1B6923F023
:1008B00001027B68013B13430B610C37BD465DF8B9
:1008C000047B70470046005080B483B000AF78606E
:1008D0000649064B5B6923F001027B68013B134329
:1008E0004B610C37BD465DF8047B704700460050F5
:1008F00080B483B000AF78600649064BDB6923F013
:100900003F027B68013B1343CB610C37BD465DF86A
:10091000047B70470046005080B483B000AF78601D
:100920000649064B5B6A23F0FF027B68013B1343D9
:100930004B620C37BD465DF8047B704700460050A3
:1009400080B483B000AF0346FB71044AFB79536067
:100950000C37BD465DF8047B704700BF0046005071
:1009600080B582B000AF0346FB710F4A0E4B5B6847
:1009700043F480135360FB79012B0ED10A4A0A4BD2
:100980005B6823F4801353606420FFF7D5FD064AAB
:10099000054B5B6843F4002353606420FFF7CCFDF4
:1009A0000837BD4680BD00BF1047005080B400AF7F
:1009B000124B1B6803F00103002B09D10F4B0122DE
:1009C0005A6000BF0D4B1B6803F00103002BF9D0E8
:1009D0000B4B1B6803F40073002B0AD0084B4FF439
:1009E00000729A6000BF064B1B6803F40073002B73
:1009F000F9D1BD465DF8047B704700BF004200504E
:100A00000044005080B400AF064B1B6803F008039D
:100A1000002B0CBF01230023DBB21846BD465DF856
:100A2000047B70470043005080B500AF4FF40000D6
:100A3000FFF7B0FD174A174BDB6923F03003D36192
:100A400000BFFFF79BFD034603F40003002BF8D023
:100A50004FF40030FFF79EFD0E4B08225A6000BF96
:100A6000FFF78CFD034603F40033002BF8D04FF45E
:100A70000020FFF78FFD074A064BDB6843F00803B1
:100A8000D36000BFFFF77AFD034603F40023002B79
:100A9000F8D080BD00430050B0B500AF0F4A0F4BF7
:100AA0005B6823F4803353600D4D0D4B5B6823F47A
:100AB000702424F03004FFF777FC0246094BA3FBB7
:100AC00002231B0D013B1B0423436B60034A034BB2
:100AD0005B6823F400335360B0BD00BF1047005083
:100AE000004700506BCA5F6B80B400AF074B1B68B8
:100AF00003F46073B3F5607F0CBF01230023DBB206
:100B00001846BD465DF8047B704700BF1047005093
:100B100080B400AF054A054B5B6823F4803323F0B3
:100B200002035360BD465DF8047B704710470050D8
:100B300080B400AF054A054B5B6843F4803343F053
:100B400002035360BD465DF8047B704710470050B8
:100B500080B586B000AFBA607B600346FB810B4670
:100B60007B73FB891846FFF717FE7B7B012B40F058
:100B70008B80FB89002B09D1FFF716FC0246544BF2
:100B8000A3FB02239B0C9B057B6102E04FF0C0633B
:100B90007B617B697A6802FB03F2BB68B2FBF3F30B
:100BA0007B617B694B4AA2FB03231B099B0D3B61C5
:100BB000494A494B5B6843F00103536000BF464B11
:100BC0001B6803F00103002BF9D0434A424B5B68DA
:100BD00043F01003536040493F4B9A683F4B13402A
:100BE0007A68013A12021A433B69013B1B041A431B
:100BF000BB68013B1B0613438B60374A364B5B686F
:100C000043F040035360344A334B5B6823F01003D6
:100C10005360314A304B5B6843F48023536000BF1C
:100C20002D4B1B6803F00403002BF9D02A4A2A4BF2
:100C30005B6823F00103536000BF274B1B6803F080
:100C40000103002BF9D17B69254AA2FB03235B0931
:100C50009B0D3B613A6A3B699A4202D2386900F0C7
:100C600045F87B695B081F4AA2FB03235B099B0DC8
:100C70003B613A6A3B699A4202D2386900F036F821
:100C8000386A00F033F81CE01349134B9B6823F0DB
:100C90007F023B6A013B13438B6000BF0E4B1B6816
:100CA00003F01003002BF9D00B4A0B4B5B6843F0A9
:100CB0000103536000BF084B1B6803F00103002BC6
:100CC000F9D0094B0522DA601837BD4680BD00BF58
:100CD00083DE1B43ABAAAAAA10470050FF8080F016
:100CE00089888888B7600BB66041005080B582B0B3
:100CF00000AF78600B490B4B9B6823F4FE027B68C6
:100D0000013B1B0413438B6000BF064B1B6803F0C1
:100D10002003002BF9D03220FFF70EFC0837BD4628
:100D200080BD00BF1047005080B483B000AF786032
:100D30007B684FF48072DA600C37BD465DF8047B47
:100D4000704700BF80B582B000AF78607B68104A02
:100D5000934203D10420FFF7A7FC16E07B680D4AFD
:100D6000934203D10820FFF79FFC0EE07B680A4AFC
:100D7000934203D11020FFF797FC06E07B68074AF7
:100D8000934202D10648FFF78FFC0837BD4680BD6D
:100D900000C0004000000140004001400040004809
:100DA0000100001080B582B000AF78601020FFF71E
:100DB000C7FD7868FFF7C6FF0837BD4680BD00BF96
:100DC00080B584B000AF78600B46FB707868FFF7A1
:100DD000E9FF7868FFF7A8FF7B681B68FB60FB688A
:100DE00023F44043FB60FB789B03FA681343FB60EA
:100DF0007B68FA681A601037BD4680BD80B485B044
:100E000000AF786039607B681B68FB603B681B0C37
:100E1000DB43FA681340FB603B689BB2FA681343FC
:100E2000FB607B68FA681A601437BD465DF8047B86
:100E3000704700BF80B483B000AF786039603B6812
:100E40001A687B685A613B685B79C3F34013DBB275
:100E50001A057B685A603B681B79C3F30303DBB256
:100E60001A467B685A623B685B79C3F30303DBB2C3
:100E70001A467B681A623B685B79C3F30013DBB2E6
:100E80001A467B689A613B681B79C3F30313DBB294
:100E90001A467B68DA620C37BD465DF8047B704702
:100EA00080B485B000AF78600B46FB707B685B68F0
:100EB000FB60FB6823F44043FB60FB789B03FA680C
:100EC0001343FB607B68FA685A601437BD465DF8CF
:100ED000047B704780B489B000AFF8600B467A603D
:100EE000FB72FB7A013BFB77FB681B68BB61FB7FF6
:100EF0005B00DBB21033FB75FB7D032202FA03F3C8
:100F0000DB43BA691340BB617B685B781A46FB7DA3
:100F100002FA03F3BA691343BB61FB7F1633FB7517
:100F2000FB7D012202FA03F3DB43BA691340BB6184
:100F30007B689B781A46FB7D02FA03F3BA69134378
:100F4000BB61FB7F5B00DBB21933FB75FB7D0322CA
:100F500002FA03F3DB43BA691340BB617B68DB78B9
:100F60001A46FB7D02FA03F3BA691343BB61FB7FA8
:100F70009B00FB75FB7D0F2202FA03F3DB43BA698A
:100F80001340BB617B681B781A46FB7D02FA03F3B2
:100F9000BA691343BB61FB68BA691A602437BD465E
:100FA0005DF8047B704700BF80B483B000AF786009
:100FB0007B684FF48072DA600C37BD465DF8047BC5
:100FC000704700BF80B483B000AF78607B680122B7
:100FD0001A610C37BD465DF8047B704780B582B05E
:100FE00000AF78607B68094A934203D18020FFF705
:100FF0005BFB07E07B68064A934203D14FF48070A5
:10100000FFF752FB0837BD4680BD00BF000002401D
:101010000040024080B582B000AF78601020FFF73A
:101020008FFC7868FFF7DAFF0837BD4680BD00BF48
:1010300080B584B000AF78600B46FB707868FFF72E
:10104000E9FF7868FFF7B0FF7B681B68FB60FB680F
:1010500023F44043FB60FB789B03FA681343FB6077
:101060007B68FA681A601037BD4680BD80B582B0D3
:1010700000AF786039607868FFF7A4FF3B681A68B2
:101080007B685A613B685B7BC3F30013DBB21A05D4
:101090007B685A603B681B7BC3F30303DBB21A46D1
:1010A0007B685A623B681B7BC3F30313DBB21A46AF
:1010B0007B68DA623B685B7BC3F30303DBB21A46EF
:1010C0007B681A623B685A687B689A613B689B68D8
:1010D00083F014027B689A640837BD4680BD00BF68
:1010E00080B485B000AF786039607B681B68FB60B6
:1010F0003B681B0CDB43FA681340FB603B689BB208
:10110000FA681343FB607B68FA681A601437BD46BF
:101110005DF8047B704700BF80B485B000AF786095
:101120000B46FB701346BB707B685B68BB60BB689B
:1011300023F00303BB60FB78BA681343BB607B6892
:10114000BA685A607B685B69FB60BB78012B04D18D
:10115000FB6843F48063FB6003E0FB6823F4806377
:10116000FB607B68FA685A611437BD465DF8047B02
:10117000704700BF80B485B000AF78600B46FB704D
:101180001346BB707B685B68FB60FB6823F00C0355
:10119000FB60FB789B00FA681343FB607B68FA688E
:1011A0005A607B685B69BB60BB6823F44073BB60BB
:1011B000BB781B02BA681343BB607B68BA685A618C
:1011C0001437BD465DF8047B704700BF80B485B01E
:1011D00000AF78600B46FB707B685B68FB60FB6868
:1011E00023F44053FB60FB781B03FA681343FB6056
:1011F0007B68FA685A601437BD465DF8047B704717
:1012000080B485B000AF78600B46FB707B685B698B
:10121000FB60FB6823F08003FB60FB78DB01FA686E
:101220001343FB607B68FA685A611437BD465DF86A
:10123000047B704780B485B000AF786008461146E3
:101240001A460346FB700B46BB7013467B707B68E7
:101250005B68BB60BB6823F44023BB60FB789B04E6
:10126000BA681343BB607B68BA685A607B685B6985
:10127000FB60BB78012B04D1FB6843F08073FB60FB
:1012800003E0FB6823F08073FB603B7E002B04D0FF
:10129000FB6843F40003FB6003E0FB6823F40003F6
:1012A000FB60FB6823F0C053FB607B78DB06FA68C9
:1012B0001343FB607B68FA685A611437BD465DF8DA
:1012C000047B704780B485B000AF78600B46FB703C
:1012D0007B685B68FB60FB6823F44043FB60FB7842
:1012E0009B03FA681343FB607B68FA685A60143703
:1012F000BD465DF8047B704780B485B000AF786070
:101300000B46FB707B685B68FB60FB6823F44073F3
:10131000FB60FB781B02FA681343FB607B68FA688A
:101320005A601437BD465DF8047B704780B485B0C1
:1013300000AF78600B46FB707B685B68FB60FB6806
:1013400023F44063FB60FB789B02FA681343FB6065
:101350007B68FA685A601437BD465DF8047B7047B5
:1013600080B485B000AF78607B685B68FB60FB6829
:1013700023F48033FB60FB6843F48033FB607B68BD
:10138000FA685A601437BD465DF8047B704700BFA9
:1013900080B485B000AF78600B46FB701346BB701D
:1013A0007B685B68BB60BB6823F40033BB60BB68D1
:1013B00043F40033BB607B68BA685A607B685B6942
:1013C000FB60BB78002B04D0FB6843F40013FB6088
:1013D00003E0FB6823F40013FB60FB78012B04D1CE
:1013E000FB6843F48003FB6003E0FB6823F48003A5
:1013F000FB607B68FA685A611437BD465DF8047B70
:10140000704700BF80B487B000AFF860B9607A6001
:10141000FB681B687B617B6923F440237B61BB68AD
:101420005B789B047A6913437B617B6923F44013E7
:101430007B617B685B781B057A6913437B617B6901
:1014400023F400037B61BB689B78DB057A69134357
:101450007B617B6923F080737B617B689B781B06D3
:101460007A6913437B617B6923F0C0537B61BB685E
:10147000DB78DB067A6913437B617B6923F0C04329
:101480007B617B68DB785B077A6913437B617B69EF
:1014900023F0F0037B61BB681B781B017A6913435F
:1014A0007B617B6923F470637B617B681B781B0223
:1014B0007A6913437B61FB687A691A601C37BD4601
:1014C0005DF8047B704700BF80B489B000AFF8605E
:1014D0000B467A60FB72FB7A013BFB77FB681B686B
:1014E000BB61FB7F5B00DBB21033FB75FB7D03222E
:1014F00002FA03F3DB43BA691340BB617B685B7894
:101500001A46FB7D02FA03F3BA691343BB61FB7F02
:101510001633FB75FB7D012202FA03F3DB43BA6944
:101520001340BB617B689B781A46FB7D02FA03F38C
:10153000BA691343BB61FB7F5B00DBB21933FB75F8
:10154000FB7D032202FA03F3DB43BA691340BB615C
:101550007B68DB781A46FB7D02FA03F3BA69134312
:10156000BB61FB7F9B00FB75FB7D0F2202FA03F33F
:10157000DB43BA691340BB617B681B781A46FB7D6D
:1015800002FA03F3BA691343BB61FB68BA691A60D4
:101590002437BD465DF8047B704700BF80B483B03C
:1015A00000AF78600B467B807A887B685A630C3783
:1015B000BD465DF8047B704780B483B000AF7860AF
:1015C0000B46FB7013463B80FB78002B03D13A8817
:1015D0007B68DA6302E03A887B685A640C37BD4660
:1015E0005DF8047B704700BF80B487B000AF7860BF
:1015F0000B46FB701346BB70FB780B2B3BD801A24C
:1016000052F823F035160008351600083F1600087A
:101610003F1600084916000849160008771600080A
:1016200077160008531600085F1600086B160008AE
:101630006B16000803237B6100233B6120E00C2331
:101640007B6102233B611BE030237B6104233B6110
:1016500016E04FF440737B6108233B6110E04FF4C8
:1016600040637B610A233B610AE04FF440537B6196
:101670000C233B6104E000237B6100233B6100BF3E
:101680007B69002B13D07B68D3F8A830FB607B69A3
:10169000DB43FA681340FB60BA783B6902FA03F354
:1016A000FA681343FB607B68FA68C3F8A8201C370C
:1016B000BD465DF8047B704780B483B000AF7860AE
:1016C00039603B685A687B681A653B689A687B6832
:1016D0005A653B681A687B68DA640C37BD465DF86A
:1016E000047B704780B483B000AF78600B46FB701A
:1016F0001346BB70FB789B08DBB21846FB789B084F
:10170000DBB21A467B68043253F82220FB7803F0E0
:101710000303DB001946F8238B40DB4302EA030195
:101720007B68021D43F82210FB789B08DBB2184649
:10173000FB789B08DBB21A467B68043253F8222000
:10174000BB78F97801F00301C9008B4042EA03013C
:101750007B68021D43F822100C37BD465DF8047B00
:10176000704700BF80B483B000AF78600B46FB7059
:101770001346BB707B685A6FFB785B0019460323E6
:101780008B40DB431A407B685A677B685A6FBB7893
:10179000F97849008B401A437B685A670C37BD467D
:1017A0005DF8047B704700BF80B584B000AFF8607F
:1017B000B9601346FB71F86800F0ACF9FB68114A98
:1017C0005A63BB68DB88F868194600F01DF8FB799E
:1017D000002B08D0BB681A68BB681B79F8681146F3
:1017E0001A4600F03BF8FB684FF4A0629A63FB686E
:1017F0004FF0FF32DA64FB6800221A641037BD46EE
:1018000080BD00BF03033F0780B483B000AF7860A2
:101810000B467B807B8803F4F843B3F5F04F0ED181
:101820007B68DB6B1B0C1B047A88D2B21A437B8863
:101830005B0003F47E431A437B68DA6308E07B684D
:10184000DB6B1B0C1B047A8812021A437B68DA6379
:101850000C37BD465DF8047B704700BF80B586B08D
:1018600000AFF860B9601346FB71BB68204A934231
:1018700019D8FB68DB6B23F40032FB68DA63FB7971
:10188000002B08D0BB68F86819460A2200F000FA5D
:101890000346FB7527E0F868B9680A2200F086F96C
:1018A0000346FB751FE0BB68124A934219D8FB68D8
:1018B000DB6B43F40032FB68DA63FB79002B08D062
:1018C000BB68F8681946192200F0E2F90346FB7577
:1018D00009E0F868B968192200F068F90346FB7559
:1018E00001E00123FB75FB7D18461837BD4680BD1E
:1018F000A0860100801A060080B584B000AFF860B1
:10190000B9601346FB71F86800F004F9BB685B79B5
:10191000002B15D1FB79002B12D0BB681B79002B53
:1019200007D0BB681B68F8681946022200F0B0F9BE
:1019300006E0BB681B68F8681946022200F036F919
:10194000FB680F4A5A63FB684FF4A2629A63BB6854
:101950005B79002B07D1BB689B7943F00B03DBB2AB
:101960001A46FB68DA63FB684FF0FF32DA64BB6843
:101970001B891A46FB681A641037BD4680BD00BF3C
:1019800002013F0780B483B000AF78607B689B6B37
:10199000DBB223F07F03DBB218460C37BD465DF89F
:1019A000047B704780B483B000AF786039607B6897
:1019B0003A68DA640C37BD465DF8047B704700BFB7
:1019C00080B586B000AFF860B9601346FB71102394
:1019D0007B61F86800F09EF8BB681B7A002B02D090
:1019E000BB681B7A7B61FB79002B14D0BB681B7929
:1019F000002B09D0BB681B681A467B69F868114642
:101A00001A4600F045F906E0BB681B68F8681946FD
:101A10007A6900F0CBF8BB68DB79013B5A007B693F
:101A20005B0801331B02134343F4403343F00103CB
:101A3000FA68D363BB685B79013B1B0643F4817290
:101A4000FB685A63BB689B79002B09D0FB685A6B13
:101A5000BB689B79013B1B041A43FB685A6308E08F
:101A6000FB685A6BBB685B79013B1B041A43FB683C
:101A70005A63FB684FF4A0629A63FB684FF0FF3231
:101A8000DA64BB685B891A46FB681A641837BD467E
:101A900080BD00BF80B582B000AF78600B467B8010
:101AA0007B68D3F8083103F0E063002B10D100BF4E
:101AB0007868FFF767FF0346802BF9D078684FF40A
:101AC0000051FFF76FFF7A887B68C3F8802003E03E
:101AD0007A887B68C3F880210837BD4680BD00BF87
:101AE00080B485B000AF78607B68D3F80C3103F028
:101AF000E063002B03D17B685B6DFB8103E07B68B7
:101B0000D3F81C31FB81FB8918461437BD465DF8BC
:101B1000047B704780B582B000AF78607B681A4A5A
:101B2000934203D07B68194A934203D1184800F0CE
:101B3000F1F916E07B68174A934203D07B68164A96
:101B4000934203D1154800F0E5F90AE07B68144A96
:101B5000934203D07B68134A934202D1124800F0AB
:101B6000D9F97B680322DA6000BF7B68DB6803F089
:101B70000103002BF9D07B681B6C23F00F027B68FC
:101B80001A640837BD4680BD0000034000020340D0
:101B90000800034000000248000202480800024812
:101BA00000400248004202480840024880B58EB01A
:101BB00000AFF860B9607A60BB68632B5AD97B6864
:101BC000002B57D0FEF7B0FD02462F4BA3FB02239C
:101BD0005B093B62BB682C4AA2FB03235B09BB6029
:101BE0004FF48063FB620123BB6240F2FF337B62F0
:101BF0004FF480633B6322E03B6A3A6B02FB03F2E3
:101C0000BB68796801FB03F3B2FBF3F3FB61FB698B
:101C10009B0ABB61FB69C3F309037B61BB69B3F535
:101C2000806F09D87A697B6A9A4205D27B697B62A8
:101C3000BB69BB623B6BFB623B6B013B3B633B6B3A
:101C4000002BD9D1FB6A013B43F40042FB681A61C7
:101C5000FB685A690D4B13407A68013A92021A43A5
:101C6000BB6A013B1B041A43FB685A61002387F8D7
:101C7000373002E0012387F8373097F837301846BD
:101C80003837BD4680BD00BF1F85EB51EF8000FC9B
:101C900080B58CB000AFF860B9607A60FEF744FDA3
:101CA00003463B62BB687A6802FB03F3FB610123D6
:101CB000FB623A6AFB699A425FDD3A6AFB6992FB12
:101CC000F3F3BB6210E0FB6A0133FB62BB687A6826
:101CD00002FB03F31A46FB6A03FB02F3FB613A6A59
:101CE000FB6992FBF3F3BB62BB6A40F2FE329342A4
:101CF000E9D83A6A7B68B96A01FB03F3F96A01FB28
:101D000003F3B2FBF3F3BB613A6ABB6A0133796850
:101D100001FB03F3F96A01FB03F3B2FBF3F37B610D
:101D2000BA687B69D31A83EAE372A2EBE372B968FB
:101D3000BB69CB1A002BB8BF5B429A4202DABB6A7E
:101D40000133BB62BB6AC3F58063BB62BB6A43F409
:101D50008042FB681A61FB685A690C4B13407A6831
:101D6000013A92021A43FB6A013B1B041A43FB68C7
:101D70005A61002387F8273002E0012387F82730D3
:101D800097F8273018463037BD4680BDEF8000FCFD
:101D900080B485B000AFF860B9603B601346FB715A
:101DA000FB68D3F8083123F0E062FB68C3F8082130
:101DB000FB68D3F80821094B13403A681102BA684E
:101DC0001143FA7912060A431A43FB68C3F8082143
:101DD0001437BD465DF8047B704700BFC0C0FFF8F4
:101DE00080B485B000AFF860B9603B601346FB710A
:101DF000FB68D3F80C3123F0E062FB68C3F80C21D8
:101E0000FB68D3F80C210A4B13403A681102BA68F8
:101E10001143FA7912060A43134343F08052FB68D8
:101E2000C3F80C211437BD465DF8047B704700BF32
:101E3000C0C0FFEF80B485B000AFF8600B467A6099
:101E4000FB72FB68D3F80C3123F47C527B681B02D5
:101E50001A43FB68C3F80C211437BD465DF8047BB8
:101E6000704700BF80B485B000AFF8600B467A6061
:101E7000FB72FB689A69FB7A072101FA03F3DB43E3
:101E80001A40FB7A796801FA03F31A43FB689A61F6
:101E90001437BD465DF8047B704700BF80B485B041
:101EA00000AFF8600B467A60FB72FB68D3F808213C
:101EB000FB7A072101FA03F3DB431A40FB7A7968C6
:101EC00001FA03F31A43FB68C3F808211437BD462F
:101ED0005DF8047B704700BF80B485B000AFF86048
:101EE0000B467A60FB72FB68D3F80C21FB7A072162
:101EF00001FA03F3DB431A40FB7A796801FA03F332
:101F00001A43FB68C3F80C211437BD465DF8047B07
:101F1000704700BF80B582B000AF78607B68184A18
:101F200093420CD14FF40060FEF7BEFB00BF4FF4AC
:101F30000060FEF7D5FB0346002BF8D11CE07B6860
:101F4000104A93420AD11048FEF7AEFB00BF0E487C
:101F5000FEF7C6FB0346002BF9D10DE07B680B4A68
:101F6000934209D10A48FEF79FFB00BF0848FEF7DD
:101F7000B7FB0346002BF9D10837BD4680BD00BF33
:101F80000800034008000248800000100840024892
:101F90000001001080B400AFBD465DF8047B7047BF
:101FA00080B483B000AF786039607B681A6C3B689E
:101FB000DB431A407B681A640C37BD465DF8047B2E
:101FC000704700BF80B483B000AF78607B689B6BC4
:101FD000DBB223F07F03DBB218460C37BD465DF859
:101FE000047B704780B483B000AF786039607B6851
:101FF000D3F808213B68DB431A407B68C3F808210B
:102000000C37BD465DF8047B704700BF80B483B0D9
:1020100000AF78607B68D3F8143103F48053002B51
:1020200014BF01230023DBB218460C37BD465DF810
:10203000047B704780B483B000AF78607B68D3F8CE
:10204000143103F40063002B14BF01230023DBB21F
:1020500018460C37BD465DF8047B704780B483B0EA
:1020600000AF786039607B68D3F80C213B68DB43B4
:102070001A407B68C3F80C210C37BD465DF8047B21
:10208000704700BF80B483B000AF78607B68D3F83E
:10209000143103F00803002B14BF01230023DBB22B
:1020A00018460C37BD465DF8047B704780B584B098
:1020B00000AF78600023FB737B685B685B689847C0
:1020C0000346FB73FB7B18461037BD4680BD00BF3F
:1020D00080B584B000AF78607B689B68FB60FB686C
:1020E000DA68FB689B689A4240D27B685B6893F829
:1020F0002B30002B27D01AE0FB68DA68FB689B685E
:102100009A4212D27B681968FB681A68FB68DB6820
:1021100013441B789BB208461946FFF7BBFCFB68CB
:10212000DB685A1CFB68DA6001E000BF53E07B68A3
:102130001B681846FFF76AFF034683F00103DBB212
:10214000002BD9D147E07B681968FB681A68FB68E7
:10215000DB6813441B789BB208461946FFF79AFCCC
:10216000FB68DB685A1CFB68DA6034E07B681B683C
:102170001846FFF75FFF0346002B2CD07B685B6897
:1021800093F82B30002B07D07B681B6818464FF064
:102190008041FFF727FF06E07B681B6818464FF475
:1021A0000051FFF7FDFE00BF7B681B681846FFF774
:1021B00009FF0346802BF7D0FB6800221A76FB68E4
:1021C00000221A607B685B689B68002B03D07B68E9
:1021D0005B689B6898471037BD4680BD90B585B059
:1021E00000AF78607B689B68FB607B685B6893F8F6
:1021F0002C30002B4ED032E0FB685A69FB681B691B
:102200009A4211D2FB685A68FB685B69D4187B68F4
:102210001B681846FFF764FC0346DBB22370FB68BB
:102220005B695A1CFB685A61FB685A69FB681B6949
:102230009A4214D1FB6800225A767B681B681846C4
:102240004FF0C041FFF70AFF7B685B68DB68002B3B
:1022500004D07B685B68DB6898470BE00AE07B682A
:102260001B681846FFF70EFF034683F00103DBB23D
:10227000002BC1D1FB685A69FB681B699A423AD2AC
:10228000FB681A69FB685B69D31A7868194600F025
:1022900035F830E0FB685A69FB681B699A4211D235
:1022A000FB685A68FB685B69D4187B681B68184632
:1022B000FFF716FC0346DBB22370FB685B695A1C10
:1022C000FB685A61FB685A69FB681B699A4212D124
:1022D000FB6800225A767B681B6818464FF4404121
:1022E000FFF75EFE7B685B68DB68002B03D07B68D2
:1022F0005B68DB6898471437BD4690BD80B584B0F5
:1023000000AF786039600023FB607B685B6893F8FE
:102310002C301A4601239340BB603A68BB689A424E
:1023200003D23B68013BFB6002E0BB68013BFB6002
:102330007B681A687B685B6893F82C3010461946F6
:10234000FA68FFF777FD1037BD4680BD80B400AF57
:10235000044BDB6803F4E0631B0A1846BD465DF8D6
:10236000047B704700ED00E080B483B000AF03460B
:10237000FB7197F90730002B0BDB084997F9073001
:102380005B09FA7902F01F02012000FA02F241F81B
:1023900023200C37BD465DF8047B704700E100E068
:1023A00080B483B000AF03463960FB7197F9073002
:1023B000002B0ADB0D4997F907303A68D2B2920038
:1023C000D2B20B4483F800230AE00949FB7903F0F9
:1023D0000F03043B3A68D2B29200D2B20B441A7691
:1023E0000C37BD465DF8047B704700BF00E100E09C
:1023F00000ED00E080B489B000AFF860B9607A60A9
:10240000FB6803F00703FB61FB69C3F10703062BBD
:1024100028BF0623BB61FB690633062B02D9FB6983
:10242000013B00E000237B61BB69012202FA03F358
:102430005A1EBB681A407B699A407B69012101FAE8
:1024400003F3591E7B680B40134318462437BD46DF
:102450005DF8047B704700BF80B483B000AF786044
:102460000B46FB701346BB70F878FB787A6806332E
:102470009B0013445B6823F00702BB781A4379681A
:10248000831D9B000B445A600C37BD465DF8047BEE
:10249000704700BF80B582B000AF7860396078685F
:1024A00039680122FFF78CFA0837BD4680BD00BFAE
:1024B00080B483B000AF78607B681B6C23F00F039F
:1024C00043F002027B681A640C37BD465DF8047B5A
:1024D000704700BF80B582B000AF0023FB712D486C
:1024E00000212D4AFDF76AFF2C482D49FFF7D2FF46
:1024F0002A4800210322FFF7AFFF284810210422B9
:102500000123FFF745FC2548002104220023FFF7A3
:1025100067FC2248FFF7CCFF1E480121214AFDF746
:102520004DFF1E4810210222FFF79CFC1B48102182
:102530000122FFF7B3FC194810210022FFF7CCFC61
:10254000164813210022FFF7C7FCFFF7FFFE0346E2
:1025500018463F210022FFF74DFF03465B20194636
:10256000FFF71EFF5B20FFF7FFFEFFF7EFFE0346BE
:1025700018463F210022FFF73DFF03465A20194627
:10258000FFF70EFF5A20FFF7EFFEFB7918460837DA
:10259000BD4680BD00800248FC35000800020248AC
:1025A000A8350008B435000880B500AF0148FFF732
:1025B0008FFD80BD0000002080B500AF0148FFF70F
:1025C0000DFE80BD0000002080B584B000AF7860B3
:1025D0000023FB737B685B68DB6898470346FB73EB
:1025E000FB7B18461037BD4680BD00BF80B483B06A
:1025F00000AF78600B46FB701346BB70F878FB7831
:102600007A6806339B0013445B6823F00702BB78AB
:102610001A437968831D9B000B445A600C37BD46F2
:102620005DF8047B704700BF80B483B000AF786072
:102630000B46FB70F878FB787A6806339B001344EE
:102640005B6843F480727968831D9B000B445A6079
:102650000C37BD465DF8047B704700BF80B483B083
:1026600000AF78600B46FB707B685B6B23F0706299
:10267000FB78013B1B061A437B685A630C37BD4647
:102680005DF8047B704700BF80B483B000AF786012
:102690000B46FB707B685B6B23F47C12FB78013B81
:1026A0001B041A437B685A630C37BD465DF8047BF4
:1026B000704700BF80B483B000AF78600B46FB70FA
:1026C0007B681B6C23F00F02FB781A437B681A644B
:1026D0000C37BD465DF8047B704700BF80B582B003
:1026E00000AF78603960786839680122FFF704F933
:1026F0000837BD4680BD00BF80B582B000AF7860AE
:1027000078680121FFF7D6FF0837BD4680BD00BFBE
:1027100080B483B000AF78607B685B6B43F00102EC
:102720007B685A630C37BD465DF8047B704700BF79
:1027300080B582B000AF78600B46FB70FB7878689C
:102740001946FFF78BFF0837BD4680BD80B582B0C4
:1027500000AF78600B46FB70FB7878681946FFF78E
:1027600093FF0837BD4680BD80B582B000AF78606A
:102770000B46FB701346BB70F878FB787A6806331B
:102780009B0013445B6823F0500343F01002796808
:10279000831D9B000B445A60FA78BB787868114619
:1027A0001A46FFF723FF0837BD4680BD80B582B0CB
:1027B00000AF78600B46FB70FB7878681946FFF72E
:1027C00033FF0837BD4680BD80B582B000AF00231F
:1027D000FB71284B9B6800229A76264B9B6800224F
:1027E000DA7625480421254AFDF7E8FD2248032131
:1027F000234AFDF7E3FD20480221224AFDF7DEFDD2
:1028000021482249FFF76AFF1F48FFF781FF1E4852
:102810000821FFF78DFF1C484021FFF797FF1A485A
:1028200000210022FFF7A0FF174801210022FFF737
:102830009BFF154802210022FFF796FF1248022154
:10284000FFF7B4FF104810210022FFF70BFB0E48E2
:10285000FFF752FF084805210D4AFDF7AFFD064876
:1028600005210022FEF77EFFFB7918460837BD469A
:1028700080BD00BF280000200082024844360008C6
:10288000503600082C3600080002034008360008C5
:102890001436000880B483B000AF78600B46FB703C
:1028A000FB7801229A407B68DA600C37BD465DF800
:1028B000047B704780B483B000AF786039607B6878
:1028C0005A693B685B041A437B685A610C37BD4602
:1028D0005DF8047B704700BF80B483B000AF7860C0
:1028E0007B680122DA600C37BD465DF8047B7047D7
:1028F00080B483B000AF786039607B683A681A6151
:102900000C37BD465DF8047B704700BF80B483B0D0
:1029100000AF78600B46FB707B68D3F8A420FB788F
:10292000012101FA03F31A437B68C3F8A4200C3792
:10293000BD465DF8047B704780B586B000AF786017
:102940000123FB750123BB757B681B7F002B40F0C7
:102950009A807B681B68D3F88830184600F096FB95
:102960000346BB75BB7D002B40F089807B689A686D
:102970007B681B685B6C10461946FEF777FB7B682B
:102980009A687B681B685B8810461946FEF706FE4E
:102990007B689A687B681B689B88104600211A46F2
:1029A000FEF70AFE7B689A687B681B68DB88104626
:1029B00001211A46FEF700FE7B681B685B6CDB7822
:1029C00003F00203DBB2002B08D17B681B685B6C51
:1029D000DB7803F00403DBB2002B08D07B685A6875
:1029E0007B681B68DB6B10461946FEF779FB7B683A
:1029F0005A687B681B6910461946FFF779FF7B68A8
:102A00005A687B685B6910461946FFF771FF7B685F
:102A10009A687B681B681B6C10461946FEF74CFED3
:102A2000786800F057F9786800F034F8786800F0BA
:102A3000F5F87B681B68D3F888301B683B617B68BE
:102A40001B685B6C1B7BC3F30303DBB2FB60FB689F
:102A50003A6922FA03F33B617B683A691A627B6840
:102A600001221A770023FB757B681B681B78002BFB
:102A70000BD0786800F01EFA0346FB7505E07B6812
:102A800000221A7701E00223FB75FB7D18461837F8
:102A9000BD4680BD80B582B000AF78607B689A6823
:102AA0007B681B685B7C104600211A46FEF79CFD84
:102AB0007B689A687B681B689B7C104602211A46DB
:102AC000FEF792FD7B689A687B681B68DB7C10468A
:102AD00003211A46FEF788FD7B689A687B681B68AD
:102AE0001B7D104604211A46FEF77EFD7B689A681E
:102AF0007B681B685B7D104605211A46FEF774FD56
:102B00007B689A687B681B689B7D104601211A468A
:102B1000FEF76AFD7B689A687B681B68DB7D104660
:102B200008211A46FEF760FD7B689A687B681B687F
:102B30001B7E104609211A46FEF756FD7B689A68EF
:102B40007B681B685B7E10460A211A46FEF74CFD27
:102B50007B681B681B7A002B05D07B689B68184636
:102B60000021FFF7D3FE7B681B685B7A002B05D042
:102B70007B689B6818460221FFF7C8FE7B681B68CC
:102B80009B7A002B05D07B689B6818460321FFF7D2
:102B9000BDFE7B681B68DB7A002B05D07B689B68D9
:102BA00018460421FFF7B2FE7B681B681B7B002BD5
:102BB00005D07B689B6818460521FFF7A7FE7B6858
:102BC0001B685B7B002B05D07B689B681846012146
:102BD000FFF79CFE7B681B689B7B002B05D07B6806
:102BE0009B6818460821FFF791FE7B681B68DB7B1A
:102BF000002B05D07B689B6818460921FFF786FEED
:102C00007B681B681B7C002B05D07B689B68184683
:102C10000A21FFF77BFE0837BD4680BD80B582B034
:102C200000AF78607B681B6893F84830002B0ED0AB
:102C30007B681B68D96C7B681B6893F850207B68A5
:102C40001B685B6D084611461A46FDF7B7FB7B68AB
:102C50001B6893F85830002B0ED07B681B68D96D29
:102C60007B681B6893F860207B681B685B6E084676
:102C700011461A46FDF7A2FB7B681B6893F8683083
:102C8000002B0ED07B681B68D96E7B681B6893F89D
:102C900070207B681B685B6F084611461A46FDF77B
:102CA0008DFB7B681B6893F87830002B0FD07B6816
:102CB0001B68D96F7B681B6893F880207B681B6852
:102CC000D3F88430084611461A46FDF777FB0837DB
:102CD000BD4680BD80B584B002AF78607B689A68DD
:102CE0007B681B68DB69104601211A46FEF7ECFB86
:102CF0007B689A687B681B681B6A104602211A462B
:102D0000FEF7E2FB7B689A687B681B685B6A10468B
:102D100003211A46FEF7D8FB7B681B6893F828301E
:102D2000002B0ED07B6899687B681B6893F828207D
:102D30007B681B6893F82930084611461A46FEF74F
:102D4000EBF97B681B6893F82A30002B0ED07B6868
:102D500099687B681B6893F82A207B681B6893F846
:102D60002B30084611461A46FEF704FA7B681B68AA
:102D700093F82C30002B09D07B689A687B681B681D
:102D800093F82C3010461946FEF7D0FA7B681B6882
:102D900093F82D30002B09D07B689A687B681B68FC
:102DA00093F82D3010461946FEF7A6FA7B681B688B
:102DB00093F82E30002B09D07B689A687B681B68DB
:102DC00093F82E3010461946FEF77CFA7B681B6894
:102DD00093F82F30002B13D07B689A687B681B68B0
:102DE00093F82F3010461946FEF7F0F97B689A6881
:102DF0007B681B6893F8303010461946FEF700FADE
:102E00007B681B6893F83130002B11D07B68986881
:102E10007B681B6893F831107B681B6893F832203D
:102E20007B681B6893F8333000930323FEF702FAA4
:102E30007B681B6893F83730032B1AD17B6899683D
:102E40007B681B6893F839207B681B6893F83830DF
:102E5000084611461A46FEF79BFA7B681B6893F8F2
:102E60003630002B05D07B689B6818460F21FFF792
:102E700021FD7B681B6893F83430002B05D17B68FB
:102E80001B6893F83530002B11D07B6899687B68FC
:102E90001B681A6A7B681B685B6A084611461A46FB
:102EA000FEF7B0FA7B689B681846FEF759FA0837B8
:102EB000BD4680BD80B584B000AF78600123FB7350
:102EC0007B681B7F012B03D07B681B7F032B17D1F3
:102ED0007B685A687B685B7B10461946FFF7DAFC13
:102EE0007B681B6893F82830002B04D17B689B68B3
:102EF0001846FFF7F1FC7B6802221A770023FB7368
:102F0000FB7B18461037BD4680BD00BF80B584B03E
:102F100000AF78607B68002B06D07B685B685B68DD
:102F200098470023FB7301E00123FB73FB7B1846EA
:102F30001037BD4680BD00BF80B483B000AF78605D
:102F40000B46FB701346BB70F878FB787A68063343
:102F50009B0013445B6823F00702BB781A4379682F
:102F6000831D9B000B445A600C37BD465DF8047B03
:102F7000704700BF80B483B000AF78600B46FB7031
:102F80007B681B6C23F00F02FB781A437B681A6482
:102F90000C37BD465DF8047B704700BF80B582B03A
:102FA00000AF78603960786839680122FEF7FCFB71
:102FB0000837BD4680BD00BF80B582B000AF7860E5
:102FC00078680421FFF7D6FF0837BD4680BD00BFF3
:102FD00080B500AF05480E210022FEF783FB0448B0
:102FE0000B210022FEF77EFB80BD00BF008202485D
:102FF0000080024880B500AFD02306480E211A4653
:10300000FEF770FBD02304480B211A46FEF76AFB3B
:1030100080BD00BF008202480080024880B500AF3A
:103020000D480E49FFF7BAFF0B4800210322FFF7B6
:1030300083FF094801210022FFF77EFF0648FFF7C2
:10304000BBFF07480E21074AFDF7B8F906480B21D8
:10305000064AFDF7B3F980BD00000248943C000821
:10306000008202487C3C000800800248883C00083E
:1030700080B483B000AF78607B684FF48072DA6010
:103080000C37BD465DF8047B704700BF80B582B049
:1030900000AF78607B685B7B83F00103DBB2002BC1
:1030A0000FD07B689A687B681B7B10461946FDF73A
:1030B000BFFF7B689B681846FFF7DAFF7B68012239
:1030C0005A73002318460837BD4680BD80B483B0CC
:1030D00000AF78607B684FF48072DA600C37BD46D1
:1030E0005DF8047B704700BF80B582B000AF7860A8
:1030F0007B685B7B83F00103DBB2002B0FD07B6826
:103100009A687B681B7B10461946FDF759FE7B6861
:103110009B681846FFF7DAFF7B6801225A73002389
:1031200018460837BD4680BD80B582B000AF7860D4
:103130007B6819687B681A7C7B68043308461146F3
:103140001A46FDF73BF97B6819687B681A7C7B6837
:103150005B7C084611461A46FEF704FB002318461E
:103160000837BD4680BD00BF80B485B000AF786031
:103170007B6803F00703FB600C4BDB68BB60BA683D
:103180004FF6FF031340BB60FB681A02BB68134392
:1031900043F0BF6343F40033BB60044ABB68D360B1
:1031A0001437BD465DF8047B704700BF00ED00E0BA
:1031B00080B582B000AF0120FFF7D6FF72B6214B79
:1031C000214A9A60BFF34F8F62B61E4A1D4BD3F857
:1031D000883043F47003C2F888301C4B03F58053E9
:1031E00014331B687B607B6823F00F037B607B6874
:1031F00043F003037B60154B03F5805314337A6867
:103200001A60104A0F4B5B6923F0100353610D4A9B
:103210000C4B5B6923F0080353610A4A094B5B6A54
:1032200023F480335362074A064B5B6A23F400336E
:103230005362044A034B5B6A23F4802353620837CA
:10324000BD4680BD00ED00E0000000080010005801
:1032500080B485B000AF78600023FB737B680122E7
:103260001A70FB7B18461437BD465DF8047B704727
:10327000B0B586B000AF0D4B3C1D1D460FCD0FC441
:103280002B6823603B1D1846FDF792F90020FDF7DF
:10329000A3FA0020FDF76CFA0120FDF73DFB0120A9
:1032A000FDF726FB1837BD46B0BD00BFDC3C00086B
:1032B00080B582B000AF78607B681B689847034692
:1032C00018460837BD4680BD80B483B000AF786033
:1032D0000B46FB70FB7801229A407B68DA600C3762
:1032E000BD465DF8047B704780B483B000AF786062
:1032F0007B680122DA600C37BD465DF8047B7047BD
:1033000080B483B000AF78600B467B807A887B689E
:103310005A630C37BD465DF8047B704780B483B0B8
:1033200000AF78600B467B807A887B68DA630C3765
:10333000BD465DF8047B704780B483B000AF786011
:1033400039607B683A681A610C37BD465DF8047BCA
:10335000704700BF80B483B000AF78600B467B80BD
:103360007A887B681A670C37BD465DF8047B704726
:1033700080B500AF1D48FFF7B7FE1D481D49FDF79A
:1033800059FD1B484FF40041FFF7C8FF18484FF69E
:10339000FF71FFF7B5FF18484FF08061FDF72EFD74
:1033A00015480721FFF7C8FF11480121134AFDF70F
:1033B00091FD0F480221124AFDF78CFD0C480321B4
:1033C000104AFDF787FD0A480121FDF769FD0A480B
:1033D0000021FFF779FF06480021FFF7BBFF0448F3
:1033E000FFF782FF0023184680BD00BF10020020B7
:1033F00000010140003D000800000140083D0008B8
:103400000C3D0008103D000880B582B000AF0023DD
:10341000FB713D48FFF71CFF0346FB71FB79002B56
:1034200004D13A48FFF7D0F80346FB71FB79002B33
:1034300004D13748FFF76AFD0346FB71FB79002B87
:1034400004D13448FFF778FA0346FB71FB79002B6F
:1034500004D13148FFF770FA0346FB71FB79002B6A
:1034600004D12E48FFF768FA0346FB71FB79002B65
:1034700004D12B48FFF760FA0346FB71FB79002B60
:1034800004D12848FFF758FA0346FB71FB79002B5B
:1034900004D12548FFF750FA0346FB71FB79002B56
:1034A00004D12248FFF748FA0346FB71FB79002B51
:1034B00004D11F48FFF740FA0346FB71FB79002B4C
:1034C00004D11C48FFF710FE0346FB71FB79002B6B
:1034D00004D11948FEF7EAFD0346FB71FB79002B86
:1034E00004D11648FFF7E4FE0346FB71FB79002B7D
:1034F00004D11348FFF718FE0346FB71FB79184609
:103500000837BD4680BD00BF6802002028000020AB
:10351000D401002034000020680000209C0000201E
:10352000D000002004010020380100206C010020A0
:10353000A00100200002002000000020F03C000854
:10354000C83C000880B582B000AFFFF75DFF0346BE
:10355000FB71FB79002B00D0FEE7FEE770B50E4B48
:103560000E4CE41AA41000251E46A54204D056F8BD
:10357000253098470135F8E7FEF70CFD084C094B5C
:10358000E41AA41000251E46A54204D056F82530A2
:1035900098470135F8E770BD200200202002002086
:1035A0002002002020020020004B0000000808013B
:1035B0001000000090000000010000000200000068
:1035C0000080024801000000B4350008A83500085A
:1035D000D5240008000000000000000000000000EA
:1035E00000000000000000000000000000000000DB
:1035F000C0350008000000040401000000000000C5
:1036000001000000020000000000000000010000B6
:103610000000000090000000010000000000000019
:103620000082024814360008000500000000000077
:103630000100000000000000008202482C36000853
:103640000002000000000000010000000100000076
:103650000000000001000000010000000836000822
:103660002036000838360008C9270008000000008E
:103670000000000002020000000000000000000046
:103680000000000014000000000000000000010025
:103690000000010000000100000000000000000028
:1036A0000000000098000000000001000000000081
:1036B0000000AF043A0357020000000000000000C1
:1036C0000000000000000000000000008C36000830
:1036D000903600089436000800000000000000004A
:1036E00000000000000000000100000000000004D5
:1036F000983600087C36000801000000008002486F
:1037000005000000A43600080000000000000000D2
:1037100000000000000000000000000000000000A9
:103720000000000000000000000000000000000099
:103730000000000000000000E00100200000000088
:103740000000000014000000000000000000010064
:103750000000010000000100000000000000000067
:1037600000000000980000000000010000000000C0
:103770000000AF043A035702000000000000000000
:103780000000000000000000000000004C370008AE
:103790005037000854370008000000000000000007
:1037A0000000000000000000010000000000000810
:1037B000583700083C37000801000000008002482C
:1037C0000400000064370008000000000000000052
:1037D00000000000000000000000000000000000E9
:1037E00000000000000000000000000000000000D9
:1037F0000000000000000000E001002000000000C8
:1038000000000000140000000000000000000100A3
:1038100000000100000001000000000000000000A6
:1038200000000000980000000000010000000000FF
:103830000000AF043A03570200000000000000003F
:103840000000000000000000000000000C3800082C
:1038500010380008143800080000000000000000C4
:103860000000000000000000010000000000001047
:1038700018380008FC3700080100000000800248EA
:1038800003000000243800080000000000000000D1
:103890000000000000000000000000000000000028
:1038A0000000000000000000000000000000000018
:1038B0000000000000000000E00100200000000007
:1038C00000000000140000000000000000000100E3
:1038D00000000100000001000000000000000000E6
:1038E000000000009800000000000100000000003F
:1038F0000000AF043A03570200000000000000007F
:10390000000000000000000000000000CC380008AB
:10391000D0380008D4380008000000000000000083
:103920000000000000000000010000000000002076
:10393000D8380008BC3800080100000000800248A8
:1039400006000000E438000800000000000000004D
:103950000000000000000000000000000000000067
:103960000000000000000000000000000000000057
:103970000000000000000000E00100200000000046
:103980000000000014000000000000000000010022
:103990000000010000000100000000000000000025
:1039A000000000009800000000000100000000007E
:1039B0000000AF043A0357020000000000000000BE
:1039C0000000000000000000000000008C3900082A
:1039D0009039000894390008000000000000000041
:1039E00000000000000000000100000000000004D2
:1039F000983900087C390008010000000081024865
:103A00000F000000A43900080000000000000000C2
:103A100000000000000000000000000000000000A6
:103A20000000000000000000000000000000000096
:103A30000000000000000000F00100200000000075
:103A40000000000014000000000000000000010061
:103A50000000010000000100000000000000000064
:103A600000000000980000000000010000000000BD
:103A70000000AF043A0357020000000000000000FD
:103A80000000000000000000000000004C3A0008A8
:103A9000503A0008543A00080000000000000000FE
:103AA000000000000000000001000000000000080D
:103AB000583A00083C3A0008010000000081024822
:103AC0000E000000643A0008000000000000000042
:103AD00000000000000000000000000000000000E6
:103AE00000000000000000000000000000000000D6
:103AF0000000000000000000F001002000000000B5
:103B000000000000140000000000000000000100A0
:103B100000000100000001000000000000000000A3
:103B200000000000A00000000000010000000000F4
:103B30000000AF043A03570200000000000000003C
:103B40000000000000000000000000000C3B000826
:103B5000103B0008143B00080000000000000000BB
:103B60000000000000000000010000000000001044
:103B7000183B0008FC3A00080100000000810248E0
:103B800004000000243B00080000000000000000CA
:103B90000000000000000000000000000000000025
:103BA0000000000000000000000000000000000015
:103BB0000000000000000000F001002000000000F4
:103BC00000000000140000000000000000000100E0
:103BD00000000100000001000000000000000000E3
:103BE000000000009800000000000100000000003C
:103BF0000000AF043A03570200000000000000007C
:103C0000000000000000000000000000CC3B0008A5
:103C1000D03B0008D43B000800000000000000007A
:103C20000000000000000000010000000000002073
:103C3000D83B0008BC3B000800000000000000006A
:103C40000000000000000000000000000000000074
:103C50000000000000000000010000000085024894
:103C600001000000E43B000800000000000000002C
:103C70000000000000000000F0010020D000000063
:103C80000100000000000000D00000000100000062
:103C900000000000801A060000000000943C0008AC
:103CA0001D300008F52F0008D12F0008000000008B
:103CB0000000000000000000000000000000000004
:103CC00002020000FFFF0000008502480000000023
:103CD00000000000000000000700000028020401AE
:103CE00001010000000000000000010001010101CD
:103CF00071330008100200200001014000000000A4
:103D000000000002F00000000001000000000000C0
:043D100000000000AF
:103D140000020248CC350008200200200000000008
:103D2400000000000000000000000000000000008F
:103D34000000000000010000000203405C3600089F
:103D44000C000020B03600080000024000010240D0
:103D54000000000001000000020000000400000058
:103D640000000000000000002C0C00009013000074
:103D7400000000000000000070370008000002404E
:103D840000020240000100001000000020000000BA
:103D94004000000000000000000000002C0C0000A7
:103DA40090130000000000000000000030380008FC
:103DB4000000024000030240000200000001000075
:103DC40000020000000400000000000000000000E9
:103DD4002C0C000090130000000000000000000004
:103DE400F038000800000240000402400003000014
:103DF400001000000020000000400000000000004F
:103E0400000000002C0C00009013000000000000D3
:103E140000000000B03900080040024000410240A8
:103E24000100000001000000020000000400000086
:103E340000000000000000002C0C000090130000A3
:103E44000000000000000000703A0008004002403A
:103E540000420240010100001000000020000000A8
:103E64004000000000000000000000002C0C0000D6
:103E7400901300000000000000000000303B000828
:103E84000040024000430240010200000001000023
:103E94000002000000040000000000000000000018
:103EA4002C0C000090130000000000000000000033
:103EB400F03B0008004002400044024001030000BF
:103EC400001000000020000000400000000000007E
:103ED400000000002C0C0000901300000000000003
:103EE40000000000000002489C3C00083C02002046
:103EF400000E27070001000000000240000000003F
:103F0400000E2707000200000040024000000000ED
:103F1400000E2707080000000040004800000000D1
:103F2400000E27070200000000000140000000000E
:0400000508000201EC
:00000001FF
